{
  "contractName": "Delgado",
  "abi": [
    {
      "anonymous": false,
      "inputs": [
        {
          "indexed": true,
          "internalType": "bytes32",
          "name": "contractId",
          "type": "bytes32"
        },
        {
          "indexed": true,
          "internalType": "address",
          "name": "sender",
          "type": "address"
        },
        {
          "indexed": true,
          "internalType": "address",
          "name": "receiver",
          "type": "address"
        },
        {
          "indexed": false,
          "internalType": "uint256",
          "name": "amount",
          "type": "uint256"
        },
        {
          "indexed": false,
          "internalType": "uint256",
          "name": "k0",
          "type": "uint256"
        },
        {
          "indexed": false,
          "internalType": "uint256",
          "name": "timelock",
          "type": "uint256"
        }
      ],
      "name": "LogHTLCNew",
      "type": "event"
    },
    {
      "anonymous": false,
      "inputs": [
        {
          "indexed": true,
          "internalType": "bytes32",
          "name": "contractId",
          "type": "bytes32"
        }
      ],
      "name": "LogHTLCRefund",
      "type": "event"
    },
    {
      "anonymous": false,
      "inputs": [
        {
          "indexed": true,
          "internalType": "bytes32",
          "name": "contractId",
          "type": "bytes32"
        }
      ],
      "name": "LogHTLCWithdraw",
      "type": "event"
    },
    {
      "constant": true,
      "inputs": [],
      "name": "AA",
      "outputs": [
        {
          "internalType": "uint256",
          "name": "",
          "type": "uint256"
        }
      ],
      "payable": false,
      "stateMutability": "view",
      "type": "function"
    },
    {
      "constant": true,
      "inputs": [],
      "name": "GX",
      "outputs": [
        {
          "internalType": "uint256",
          "name": "",
          "type": "uint256"
        }
      ],
      "payable": false,
      "stateMutability": "view",
      "type": "function"
    },
    {
      "constant": true,
      "inputs": [],
      "name": "GY",
      "outputs": [
        {
          "internalType": "uint256",
          "name": "",
          "type": "uint256"
        }
      ],
      "payable": false,
      "stateMutability": "view",
      "type": "function"
    },
    {
      "constant": true,
      "inputs": [],
      "name": "NN",
      "outputs": [
        {
          "internalType": "uint256",
          "name": "",
          "type": "uint256"
        }
      ],
      "payable": false,
      "stateMutability": "view",
      "type": "function"
    },
    {
      "constant": true,
      "inputs": [],
      "name": "PP",
      "outputs": [
        {
          "internalType": "uint256",
          "name": "",
          "type": "uint256"
        }
      ],
      "payable": false,
      "stateMutability": "view",
      "type": "function"
    },
    {
      "constant": true,
      "inputs": [],
      "name": "qx",
      "outputs": [
        {
          "internalType": "uint256",
          "name": "",
          "type": "uint256"
        }
      ],
      "payable": false,
      "stateMutability": "view",
      "type": "function"
    },
    {
      "constant": true,
      "inputs": [],
      "name": "qy",
      "outputs": [
        {
          "internalType": "uint256",
          "name": "",
          "type": "uint256"
        }
      ],
      "payable": false,
      "stateMutability": "view",
      "type": "function"
    },
    {
      "constant": true,
      "inputs": [],
      "name": "res_x",
      "outputs": [
        {
          "internalType": "uint256",
          "name": "",
          "type": "uint256"
        }
      ],
      "payable": false,
      "stateMutability": "view",
      "type": "function"
    },
    {
      "constant": false,
      "inputs": [
        {
          "internalType": "address payable",
          "name": "_receiver",
          "type": "address"
        },
        {
          "internalType": "uint256",
          "name": "_k0",
          "type": "uint256"
        },
        {
          "internalType": "uint256",
          "name": "_timelock",
          "type": "uint256"
        }
      ],
      "name": "newContract",
      "outputs": [
        {
          "internalType": "bytes32",
          "name": "contractId",
          "type": "bytes32"
        }
      ],
      "payable": true,
      "stateMutability": "payable",
      "type": "function"
    },
    {
      "constant": false,
      "inputs": [
        {
          "components": [
            {
              "internalType": "bytes32",
              "name": "_contractId",
              "type": "bytes32"
            },
            {
              "internalType": "uint256",
              "name": "_r2",
              "type": "uint256"
            },
            {
              "internalType": "uint256",
              "name": "_s2",
              "type": "uint256"
            },
            {
              "internalType": "uint256",
              "name": "_k",
              "type": "uint256"
            },
            {
              "internalType": "string",
              "name": "_m2",
              "type": "string"
            }
          ],
          "internalType": "struct Delgado.WithDrawParam",
          "name": "insert",
          "type": "tuple"
        }
      ],
      "name": "withdraw",
      "outputs": [
        {
          "internalType": "bool",
          "name": "",
          "type": "bool"
        }
      ],
      "payable": false,
      "stateMutability": "nonpayable",
      "type": "function"
    },
    {
      "constant": false,
      "inputs": [
        {
          "internalType": "bytes32",
          "name": "s",
          "type": "bytes32"
        },
        {
          "internalType": "uint256",
          "name": "a",
          "type": "uint256"
        },
        {
          "internalType": "uint256",
          "name": "b",
          "type": "uint256"
        },
        {
          "internalType": "uint256",
          "name": "c",
          "type": "uint256"
        },
        {
          "internalType": "string",
          "name": "d",
          "type": "string"
        }
      ],
      "name": "getStruct",
      "outputs": [
        {
          "internalType": "bool",
          "name": "",
          "type": "bool"
        }
      ],
      "payable": false,
      "stateMutability": "nonpayable",
      "type": "function"
    },
    {
      "constant": false,
      "inputs": [
        {
          "internalType": "bytes32",
          "name": "_contractId",
          "type": "bytes32"
        }
      ],
      "name": "refund",
      "outputs": [
        {
          "internalType": "bool",
          "name": "",
          "type": "bool"
        }
      ],
      "payable": false,
      "stateMutability": "nonpayable",
      "type": "function"
    },
    {
      "constant": true,
      "inputs": [
        {
          "internalType": "bytes32",
          "name": "_contractId",
          "type": "bytes32"
        }
      ],
      "name": "getContract",
      "outputs": [
        {
          "internalType": "address",
          "name": "sender",
          "type": "address"
        },
        {
          "internalType": "address",
          "name": "receiver",
          "type": "address"
        },
        {
          "internalType": "uint256",
          "name": "amount",
          "type": "uint256"
        },
        {
          "internalType": "uint256",
          "name": "k0",
          "type": "uint256"
        },
        {
          "internalType": "uint256",
          "name": "timelock",
          "type": "uint256"
        },
        {
          "internalType": "bool",
          "name": "withdrawn",
          "type": "bool"
        },
        {
          "internalType": "bool",
          "name": "refunded",
          "type": "bool"
        }
      ],
      "payable": false,
      "stateMutability": "view",
      "type": "function"
    }
  ],
  "bytecode": "0x608060405234801561001057600080fd5b50612713806100206000396000f3fe6080604052600436106100c25760003560e01c80637b8d47441161007f578063b2e5c52711610059578063b2e5c52714610273578063e16c7d981461029e578063eeeac01e146102e1578063fd03ba391461030c576100c2565b80637b8d4744146101ed5780639870e2a41461021d578063997da8d414610248576100c2565b806303a507be146100c75780630e136272146100f257806347e6814c1461012f5780636cd03d5d1461015a5780637249fbb6146101855780637a308a4c146101c2575b600080fd5b3480156100d357600080fd5b506100dc610349565b6040516100e991906124ac565b60405180910390f35b3480156100fe57600080fd5b5061011960048036036101149190810190611c14565b61036d565b6040516101269190612296565b60405180910390f35b34801561013b57600080fd5b506101446103d2565b60405161015191906124ac565b60405180910390f35b34801561016657600080fd5b5061016f6103f6565b60405161017c91906124ac565b60405180910390f35b34801561019157600080fd5b506101ac60048036036101a79190810190611beb565b61041a565b6040516101b99190612296565b60405180910390f35b3480156101ce57600080fd5b506101d761070e565b6040516101e491906124ac565b60405180910390f35b61020760048036036102029190810190611b9c565b610732565b60405161021491906122b1565b60405180910390f35b34801561022957600080fd5b50610232610a0b565b60405161023f91906124ac565b60405180910390f35b34801561025457600080fd5b5061025d610a2f565b60405161026a91906124ac565b60405180910390f35b34801561027f57600080fd5b50610288610a34565b60405161029591906124ac565b60405180910390f35b3480156102aa57600080fd5b506102c560048036036102c09190810190611beb565b610a58565b6040516102d89796959493929190612227565b60405180910390f35b3480156102ed57600080fd5b506102f6610b58565b60405161030391906124ac565b60405180910390f35b34801561031857600080fd5b50610333600480360361032e9190810190611ca3565b610b7c565b6040516103409190612296565b60405180910390f35b7f79be667ef9dcbbac55a06295ce870b07029bfcdb2dce28d959f2815b16f8179881565b60006103776119c1565b86816000018181525050858160200181815250508481604001818152505083816060018181525050828160800181905250600115156103b582610b7c565b151514156103c75760019150506103c9565b505b95945050505050565b7fe493dbf1c10d80f3581e4904930b1404cc6c13900ee0758474fa94abe8c4cd1381565b7f51ed993ea0d455b75642e2098ea51448d967ae33bfbdfe40cfe97bdc4773992281565b600081610426816110f9565b610465576040517f08c379a000000000000000000000000000000000000000000000000000000000815260040161045c9061230c565b60405180910390fd5b823373ffffffffffffffffffffffffffffffffffffffff1660008083815260200190815260200160002060000160009054906101000a900473ffffffffffffffffffffffffffffffffffffffff1673ffffffffffffffffffffffffffffffffffffffff1614610509576040517f08c379a00000000000000000000000000000000000000000000000000000000081526004016105009061244c565b60405180910390fd5b6000151560008083815260200190815260200160002060050160019054906101000a900460ff16151514610572576040517f08c379a0000000000000000000000000000000000000000000000000000000008152600401610569906123ec565b60405180910390fd5b6000151560008083815260200190815260200160002060050160009054906101000a900460ff161515146105db576040517f08c379a00000000000000000000000000000000000000000000000000000000081526004016105d29061232c565b60405180910390fd5b42600080838152602001908152602001600020600401541115610633576040517f08c379a000000000000000000000000000000000000000000000000000000000815260040161062a9061238c565b60405180910390fd5b6000806000868152602001908152602001600020905060018160050160016101000a81548160ff0219169083151502179055508060000160009054906101000a900473ffffffffffffffffffffffffffffffffffffffff1673ffffffffffffffffffffffffffffffffffffffff166108fc82600201549081150290604051600060405180830381858888f193505050501580156106d4573d6000803e3d6000fd5b50847f989b3a845197c9aec15f8982bbb30b5da714050e662a7a287bb1a94c81e2e70e60405160405180910390a260019350505050919050565b7f483ada7726a3c4655da4fbfc0e1108a8fd17b448a68554199c47d08ffb10d4b881565b6000803411610776576040517f08c379a000000000000000000000000000000000000000000000000000000000815260040161076d9061242c565b60405180910390fd5b814281116107b9576040517f08c379a00000000000000000000000000000000000000000000000000000000081526004016107b0906122cc565b60405180910390fd5b33853486866040516020016107d29594939291906121b1565b6040516020818303038152906040528051906020012091506107f3826110f9565b15610833576040517f08c379a000000000000000000000000000000000000000000000000000000000815260040161082a9061236c565b60405180910390fd5b6040518060e001604052803373ffffffffffffffffffffffffffffffffffffffff1681526020018673ffffffffffffffffffffffffffffffffffffffff1681526020013481526020018581526020018481526020016000151581526020016000151581525060008084815260200190815260200160002060008201518160000160006101000a81548173ffffffffffffffffffffffffffffffffffffffff021916908373ffffffffffffffffffffffffffffffffffffffff16021790555060208201518160010160006101000a81548173ffffffffffffffffffffffffffffffffffffffff021916908373ffffffffffffffffffffffffffffffffffffffff16021790555060408201518160020155606082015181600301556080820151816004015560a08201518160050160006101000a81548160ff02191690831515021790555060c08201518160050160016101000a81548160ff0219169083151502179055509050508473ffffffffffffffffffffffffffffffffffffffff163373ffffffffffffffffffffffffffffffffffffffff16837fc4ce197adee1e1488861f5fb1e12c3c37732139cc655eee7efde872311dfe3593488886040516109fb939291906124c7565b60405180910390a4509392505050565b7ffffffffffffffffffffffffffffffffebaaedce6af48a03bbfd25e8cd036414181565b600081565b7f3198f2e263d08e4f6451f9046061369a53f71411b4450c89f66d082186382ff781565b6000806000806000806000801515610a6f896110f9565b15151415610aa45760008060008060008060008696508595508494508393508292509650965096509650965096509650610b4d565b60008060008a815260200190815260200160002090508060000160009054906101000a900473ffffffffffffffffffffffffffffffffffffffff168160010160009054906101000a900473ffffffffffffffffffffffffffffffffffffffff168260020154836003015484600401548560050160009054906101000a900460ff168660050160019054906101000a900460ff168696508595509750975097509750975097509750505b919395979092949650565b7ffffffffffffffffffffffffffffffffffffffffffffffffffffffffefffffc2f81565b60008160000151610b8c816110f9565b610bcb576040517f08c379a0000000000000000000000000000000000000000000000000000000008152600401610bc29061230c565b60405180910390fd5b8260008160800151604051602001610be39190612210565b60405160208183030381529060405280519060200120905060008160001c90506000610c3384604001517ffffffffffffffffffffffffffffffffebaaedce6af48a03bbfd25e8cd0364141611167565b90507ffffffffffffffffffffffffffffffffebaaedce6af48a03bbfd25e8cd03641418181610c5e57fe5b0690507ffffffffffffffffffffffffffffffffebaaedce6af48a03bbfd25e8cd036414181830281610c8c57fe5b0691507ffffffffffffffffffffffffffffffffebaaedce6af48a03bbfd25e8cd03641418185602001510281610cbe57fe5b069050600080610d32847f79be667ef9dcbbac55a06295ce870b07029bfcdb2dce28d959f2815b16f817987f483ada7726a3c4655da4fbfc0e1108a8fd17b448a68554199c47d08ffb10d4b860007ffffffffffffffffffffffffffffffffffffffffffffffffffffffffefffffc2f61122c565b8092508193505050610da8837fe493dbf1c10d80f3581e4904930b1404cc6c13900ee0758474fa94abe8c4cd137f51ed993ea0d455b75642e2098ea51448d967ae33bfbdfe40cfe97bdc4773992260007ffffffffffffffffffffffffffffffffffffffffffffffffffffffffefffffc2f61122c565b8094508195505050610ddf8282868660007ffffffffffffffffffffffffffffffffffffffffffffffffffffffffefffffc2f611266565b80925081935050508560600151600080886000015181526020019081526020016000206003015414610e46576040517f08c379a0000000000000000000000000000000000000000000000000000000008152600401610e3d9061234c565b60405180910390fd5b817f3198f2e263d08e4f6451f9046061369a53f71411b4450c89f66d082186382ff714610ea8576040517f08c379a0000000000000000000000000000000000000000000000000000000008152600401610e9f906123ac565b60405180910390fd5b88600001513373ffffffffffffffffffffffffffffffffffffffff1660008083815260200190815260200160002060010160009054906101000a900473ffffffffffffffffffffffffffffffffffffffff1673ffffffffffffffffffffffffffffffffffffffff1614610f50576040517f08c379a0000000000000000000000000000000000000000000000000000000008152600401610f47906122ec565b60405180910390fd5b6000151560008083815260200190815260200160002060050160009054906101000a900460ff16151514610fb9576040517f08c379a0000000000000000000000000000000000000000000000000000000008152600401610fb09061240c565b60405180910390fd5b426000808381526020019081526020016000206004015411611010576040517f08c379a00000000000000000000000000000000000000000000000000000000081526004016110079061248c565b60405180910390fd5b60008060008c600001518152602001908152602001600020905060018160050160006101000a81548160ff0219169083151502179055508060010160009054906101000a900473ffffffffffffffffffffffffffffffffffffffff1673ffffffffffffffffffffffffffffffffffffffff166108fc82600201549081150290604051600060405180830381858888f193505050501580156110b5573d6000803e3d6000fd5b508a600001517fd6fd4c8e45bf0c70693141c7ce46451b6a6a28ac8386fca2ba914044e0e2391660405160405180910390a260019950505050505050505050919050565b60008073ffffffffffffffffffffffffffffffffffffffff1660008084815260200190815260200160002060000160009054906101000a900473ffffffffffffffffffffffffffffffffffffffff1673ffffffffffffffffffffffffffffffffffffffff1614159050919050565b60008083141580156111795750818314155b8015611186575060008214155b6111c5576040517f08c379a00000000000000000000000000000000000000000000000000000000081526004016111bc9061246c565b60405180910390fd5b6000809050600060019050600084905060005b6000871461121f578682816111e957fe5b0490508286806111f557fe5b87806111fd57fe5b85840988038608809450819550505086878202830380985081935050506111d8565b8394505050505092915050565b60008060008060006112438a8a8a60018b8b611304565b925092509250611255838383896113a9565b945094505050509550959350505050565b600080600080905060008090506000809050888b14156112c7576000868061128a57fe5b898c0814156112a857600080819150809050945094505050506112f9565b6112b68b8b60018a8a611404565b8093508194508295505050506112e5565b6112d88b8b60018c8c60018c611523565b8093508194508295505050505b6112f1838383896113a9565b945094505050505b965096945050505050565b60008060008089141561131f5787878792509250925061139d565b6000899050600080905060008090506000600190505b6000841461138f5760006001851614611364576113578383838f8f8f8e611523565b8093508194508295505050505b6002848161136e57fe5b04935061137e8c8c8c8c8c611404565b809c50819d50829e50505050611335565b828282965096509650505050505b96509650969350505050565b60008060006113b88585611167565b9050600084806113c457fe5b8283099050600085806113d357fe5b828a099050600086806113e257fe5b87806113ea57fe5b8486098a0990508181955095505050505094509492505050565b60008060008086141561141f57878787925092509250611518565b6000848061142957fe5b898a0990506000858061143857fe5b898a0990506000868061144757fe5b898a0990506000878061145657fe5b888061145e57fe5b848e0960040990506000888061147057fe5b898061147857fe5b8a8061148057fe5b8586098c098a8061148d57fe5b87600309089050888061149c57fe5b89806114a457fe5b8384088a038a806114b157fe5b83840908945088806114bf57fe5b89806114c757fe5b8a806114cf57fe5b8687096008098a038a806114df57fe5b8b806114e757fe5b888d038608840908935088806114f957fe5b898061150157fe5b8c8e09600209925084848497509750975050505050505b955095509592505050565b6000806000808a1480156115375750600089145b1561154a578686869250925092506119b4565b60008714801561155a5750600086145b1561156d578989899250925092506119b4565b6115756119f3565b848061157d57fe5b898a098160006004811061158d57fe5b602002018181525050848061159e57fe5b816000600481106115ab57fe5b60200201518a09816001600481106115bf57fe5b60200201818152505084806115d057fe5b868709816002600481106115e057fe5b60200201818152505084806115f157fe5b816002600481106115fe57fe5b602002015187098160036004811061161257fe5b6020020181815250506040518060800160405280868061162e57fe5b8360026004811061163b57fe5b60200201518e098152602001868061164f57fe5b8360036004811061165c57fe5b60200201518d098152602001868061167057fe5b8360006004811061167d57fe5b60200201518b098152602001868061169157fe5b8360016004811061169e57fe5b60200201518a098152509050806002600481106116b757fe5b6020020151816000600481106116c957fe5b60200201511415806116fd5750806003600481106116e357fe5b6020020151816001600481106116f557fe5b602002015114155b61173c576040517f08c379a0000000000000000000000000000000000000000000000000000000008152600401611733906123cc565b60405180910390fd5b6117446119f3565b858061174c57fe5b8260006004811061175957fe5b602002015187038360026004811061176d57fe5b6020020151088160006004811061178057fe5b602002018181525050858061179157fe5b8260016004811061179e57fe5b60200201518703836003600481106117b257fe5b602002015108816001600481106117c557fe5b60200201818152505085806117d657fe5b816000600481106117e357fe5b6020020151826000600481106117f557fe5b6020020151098160026004811061180857fe5b602002018181525050858061181957fe5b8160006004811061182657fe5b60200201518260026004811061183857fe5b6020020151098160036004811061184b57fe5b6020020181815250506000868061185e57fe5b8260036004811061186b57fe5b60200201518803888061187a57fe5b8460016004811061188757fe5b60200201518560016004811061189957fe5b60200201510908905086806118aa57fe5b87806118b257fe5b88806118ba57fe5b846002600481106118c757fe5b6020020151866000600481106118d957fe5b602002015109600209880382089050600087806118f257fe5b88806118fa57fe5b838a038a8061190557fe5b8660026004811061191257fe5b60200201518860006004811061192457fe5b602002015109088460016004811061193857fe5b6020020151099050878061194857fe5b888061195057fe5b8460036004811061195d57fe5b60200201518660016004811061196f57fe5b6020020151098903820890506000888061198557fe5b898061198d57fe5b8b8f098560006004811061199d57fe5b602002015109905082828297509750975050505050505b9750975097945050505050565b6040518060a0016040528060008019168152602001600081526020016000815260200160008152602001606081525090565b6040518060800160405280600490602082028038833980820191505090505090565b600081359050611a248161268b565b92915050565b600081359050611a39816126a2565b92915050565b600082601f830112611a5057600080fd5b8135611a63611a5e8261252b565b6124fe565b91508082526020830160208301858383011115611a7f57600080fd5b611a8a83828461260e565b50505092915050565b600082601f830112611aa457600080fd5b8135611ab7611ab282612557565b6124fe565b91508082526020830160208301858383011115611ad357600080fd5b611ade83828461260e565b50505092915050565b600060a08284031215611af957600080fd5b611b0360a06124fe565b90506000611b1384828501611a2a565b6000830152506020611b2784828501611b87565b6020830152506040611b3b84828501611b87565b6040830152506060611b4f84828501611b87565b606083015250608082013567ffffffffffffffff811115611b6f57600080fd5b611b7b84828501611a3f565b60808301525092915050565b600081359050611b96816126b9565b92915050565b600080600060608486031215611bb157600080fd5b6000611bbf86828701611a15565b9350506020611bd086828701611b87565b9250506040611be186828701611b87565b9150509250925092565b600060208284031215611bfd57600080fd5b6000611c0b84828501611a2a565b91505092915050565b600080600080600060a08688031215611c2c57600080fd5b6000611c3a88828901611a2a565b9550506020611c4b88828901611b87565b9450506040611c5c88828901611b87565b9350506060611c6d88828901611b87565b925050608086013567ffffffffffffffff811115611c8a57600080fd5b611c9688828901611a93565b9150509295509295909350565b600060208284031215611cb557600080fd5b600082013567ffffffffffffffff811115611ccf57600080fd5b611cdb84828501611ae7565b91505092915050565b611cf5611cf0826125bc565b612650565b82525050565b611d04816125aa565b82525050565b611d13816125ce565b82525050565b611d22816125da565b82525050565b6000611d3382612583565b611d3d818561259f565b9350611d4d81856020860161261d565b80840191505092915050565b6000611d6660238361258e565b91507f74696d656c6f636b2074696d65206d75737420626520696e207468652066757460008301527f75726500000000000000000000000000000000000000000000000000000000006020830152604082019050919050565b6000611dcc601a8361258e565b91507f776974686472617761626c653a206e6f742072656365697665720000000000006000830152602082019050919050565b6000611e0c60198361258e565b91507f636f6e7472616374496420646f6573206e6f74206578697374000000000000006000830152602082019050919050565b6000611e4c601d8361258e565b91507f726566756e6461626c653a20616c72656164792077697468647261776e0000006000830152602082019050919050565b6000611e8c60198361258e565b91507f72616e646f6d6e65737320646f6573206e6f74206d61746368000000000000006000830152602082019050919050565b6000611ecc60178361258e565b91507f436f6e747261637420616c7265616479206578697374730000000000000000006000830152602082019050919050565b6000611f0c60238361258e565b91507f726566756e6461626c653a2074696d656c6f636b206e6f74207965742070617360008301527f73656400000000000000000000000000000000000000000000000000000000006020830152604082019050919050565b6000611f7260188361258e565b91507f7369676e617475726520646f6573206e6f74206d6174636800000000000000006000830152602082019050919050565b6000611fb2601e8361258e565b91507f557365206a6163446f75626c652066756e6374696f6e20696e737465616400006000830152602082019050919050565b6000611ff2601c8361258e565b91507f726566756e6461626c653a20616c726561647920726566756e646564000000006000830152602082019050919050565b6000612032601f8361258e565b91507f776974686472617761626c653a20616c72656164792077697468647261776e006000830152602082019050919050565b600061207260158361258e565b91507f6d73672e76616c7565206d757374206265203e203000000000000000000000006000830152602082019050919050565b60006120b260168361258e565b91507f726566756e6461626c653a206e6f742073656e646572000000000000000000006000830152602082019050919050565b60006120f2600e8361258e565b91507f496e76616c6964206e756d6265720000000000000000000000000000000000006000830152602082019050919050565b600061213260318361258e565b91507f776974686472617761626c653a2074696d656c6f636b2074696d65206d75737460008301527f20626520696e20746865206675747572650000000000000000000000000000006020830152604082019050919050565b61219481612604565b82525050565b6121ab6121a682612604565b612674565b82525050565b60006121bd8288611ce4565b6014820191506121cd8287611ce4565b6014820191506121dd828661219a565b6020820191506121ed828561219a565b6020820191506121fd828461219a565b6020820191508190509695505050505050565b600061221c8284611d28565b915081905092915050565b600060e08201905061223c600083018a611cfb565b6122496020830189611cfb565b612256604083018861218b565b612263606083018761218b565b612270608083018661218b565b61227d60a0830185611d0a565b61228a60c0830184611d0a565b98975050505050505050565b60006020820190506122ab6000830184611d0a565b92915050565b60006020820190506122c66000830184611d19565b92915050565b600060208201905081810360008301526122e581611d59565b9050919050565b6000602082019050818103600083015261230581611dbf565b9050919050565b6000602082019050818103600083015261232581611dff565b9050919050565b6000602082019050818103600083015261234581611e3f565b9050919050565b6000602082019050818103600083015261236581611e7f565b9050919050565b6000602082019050818103600083015261238581611ebf565b9050919050565b600060208201905081810360008301526123a581611eff565b9050919050565b600060208201905081810360008301526123c581611f65565b9050919050565b600060208201905081810360008301526123e581611fa5565b9050919050565b6000602082019050818103600083015261240581611fe5565b9050919050565b6000602082019050818103600083015261242581612025565b9050919050565b6000602082019050818103600083015261244581612065565b9050919050565b60006020820190508181036000830152612465816120a5565b9050919050565b60006020820190508181036000830152612485816120e5565b9050919050565b600060208201905081810360008301526124a581612125565b9050919050565b60006020820190506124c1600083018461218b565b92915050565b60006060820190506124dc600083018661218b565b6124e9602083018561218b565b6124f6604083018461218b565b949350505050565b6000604051905081810181811067ffffffffffffffff8211171561252157600080fd5b8060405250919050565b600067ffffffffffffffff82111561254257600080fd5b601f19601f8301169050602081019050919050565b600067ffffffffffffffff82111561256e57600080fd5b601f19601f8301169050602081019050919050565b600081519050919050565b600082825260208201905092915050565b600081905092915050565b60006125b5826125e4565b9050919050565b60006125c7826125e4565b9050919050565b60008115159050919050565b6000819050919050565b600073ffffffffffffffffffffffffffffffffffffffff82169050919050565b6000819050919050565b82818337600083830152505050565b60005b8381101561263b578082015181840152602081019050612620565b8381111561264a576000848401525b50505050565b600061265b82612662565b9050919050565b600061266d8261267e565b9050919050565b6000819050919050565b60008160601b9050919050565b612694816125bc565b811461269f57600080fd5b50565b6126ab816125da565b81146126b657600080fd5b50565b6126c281612604565b81146126cd57600080fd5b5056fea365627a7a7231582028f759a3d9898e026b8637b1bee9416e7b8f7ce462f6fb27d7b16c347a9fc3216c6578706572696d656e74616cf564736f6c63430005100040",
  "source": "// SPDX-License-Identifier: MIT\n\npragma solidity ^0.5.0;\npragma experimental ABIEncoderV2;\n\nimport \"./EllipticCurve.sol\";\n\n/**\n * @title Hashed Timelock Contracts (HTLCs) on Ethereum ETH.\n *\n * This contract provides a way to create and keep HTLCs for ETH.\n *\n * See HashedTimelockERC20.sol for a contract that provides the same functions\n * for ERC20 tokens.\n *\n * Protocol:\n *\n *  1) newContract(receiver, sk1, sk1y, timelock) - a sender calls this to create\n *      a new HTLC and gets back a 32 byte contract id\n *  2) withdraw(contractId, sk2) - once the receiver knows sk2 \n *      they can claim the ETH with this function\n *  3) refund() - after timelock has expired and if the receiver did not\n *      withdraw funds the sender / creator of the HTLC can get their ETH\n *      back with this function.\n */\ncontract Delgado {\n\n    event LogHTLCNew(\n        bytes32 indexed contractId,\n        address indexed sender,\n        address indexed receiver,\n        uint amount,\n        uint256 k0,\n        uint timelock\n    );\n    event LogHTLCWithdraw(bytes32 indexed contractId);\n    event LogHTLCRefund(bytes32 indexed contractId);\n\n    struct LockContract {\n        address payable sender;\n        address payable receiver;\n        uint amount;\n        uint256 k0; //the randomness k0 used by the seller(receiver) for the first signature sig_prev\n        //string m2; //the message m2 negotiated between two parties, which will be signed by the seller(receiver) \n        uint timelock; // UNIX timestamp seconds - locked UNTIL this time\n        bool withdrawn;\n        bool refunded;\n    }\n    \n    struct WithDrawParam {\n        bytes32 _contractId;\n        uint256 _r2;\n        uint256 _s2;\n        uint256 _k;\n        string _m2;\n    }\n    \n    //WithDrawParam[] public WDPs;\n    \n    //Some parameters from Elliptic Curve (secp256k1)\n    uint256 public constant GX = 0x79BE667EF9DCBBAC55A06295CE870B07029BFCDB2DCE28D959F2815B16F81798;\n    uint256 public constant GY = 0x483ADA7726A3C4655DA4FBFC0E1108A8FD17B448A68554199C47D08FFB10D4B8;\n    uint256 public constant AA = 0;\n    uint256 public constant PP = 0xFFFFFFFFFFFFFFFFFFFFFFFFFFFFFFFFFFFFFFFFFFFFFFFFFFFFFFFEFFFFFC2F;\n    uint256 public constant NN = 115792089237316195423570985008687907852837564279074904382605163141518161494337;    //order of secp256k1\n    uint256 public constant qx = 103388573995635080359749164254216598308788835304023601477803095234286494993683;    //public key pair (x,y)\n    uint256 public constant qy = 37057141145242123013015316630864329550140216928701153669873286428255828810018;\n    uint256 public constant res_x = 22433566660501949336591728236966687972342496606863864686753372370377308123127;  //hardcoded for test purposes only\n    //uint256 public constant r2 = 21505829891763648114329055987619236494102133314575206970830385799158076338148;\n    //uint256 public constant s2 = 62560875960789245167310124323518749634184838256435621860459318052048061205369;\n\n    modifier fundsSent() {\n        require(msg.value > 0, \"msg.value must be > 0\");\n        _;\n    }\n    modifier futureTimelock(uint _time) {\n        // only requirement is the timelock time is after the last blocktime (now).\n        // probably want something a bit further in the future then this.\n        // but this is still a useful sanity check:\n        require(_time > now, \"timelock time must be in the future\");\n        _;\n    }\n    modifier contractExists(bytes32 _contractId) {\n        require(haveContract(_contractId), \"contractId does not exist\");\n        _;\n    }\n    /***\n    modifier s2lockMatches(bytes32 _contractId, uint256 _r2, uint256 _s2, string memory _m2) {\n        //signature s2 verification\n        bytes32 e = keccak256(abi.encodePacked(_m2));\n        uint256 z = uint256(e);\n        uint256 w = EllipticCurve.invMod(_s2,NN);\n        w = w % NN;\n        z = (z * w) % NN;\n        w = (_r2 * w) % NN;\n        uint256 x1;\n        uint256 y1;\n        (x1,y1) = EllipticCurve.ecMul(z,GX,GY,AA,PP); \n        (z,w) = EllipticCurve.ecMul(w,qx,qy,AA,PP); \n        (x1,y1) = EllipticCurve.ecAdd(x1,y1,z,w,AA,PP);\n        require(contracts[_contractId].k0 == _r2, \"randomness does not match\");\n        require(contracts[_contractId].r1 == x1, \"signature does not match\");\n        _;\n    }\n    ***/\n    \n    modifier s2lockMatches(WithDrawParam memory insert) {\n        //signature s2 verification\n        bytes32 e = keccak256(abi.encodePacked(insert._m2));\n        uint256 z = uint256(e);\n        uint256 w = EllipticCurve.invMod(insert._s2,NN);\n        w = w % NN;\n        z = (z * w) % NN;\n        w = (insert._r2 * w) % NN;\n        uint256 x1;\n        uint256 y1;\n        (x1,y1) = EllipticCurve.ecMul(z,GX,GY,AA,PP); \n        (z,w) = EllipticCurve.ecMul(w,qx,qy,AA,PP); \n        (x1,y1) = EllipticCurve.ecAdd(x1,y1,z,w,AA,PP);\n        require(contracts[insert._contractId].k0 == insert._k, \"randomness does not match\");\n        require(res_x == x1, \"signature does not match\");\n        _;\n    }\n    \n    modifier withdrawable(bytes32 _contractId) {\n        require(contracts[_contractId].receiver == msg.sender, \"withdrawable: not receiver\");\n        require(contracts[_contractId].withdrawn == false, \"withdrawable: already withdrawn\");\n        require(contracts[_contractId].timelock > now, \"withdrawable: timelock time must be in the future\");\n        _;\n    }\n    modifier refundable(bytes32 _contractId) {\n        require(contracts[_contractId].sender == msg.sender, \"refundable: not sender\");\n        require(contracts[_contractId].refunded == false, \"refundable: already refunded\");\n        require(contracts[_contractId].withdrawn == false, \"refundable: already withdrawn\");\n        require(contracts[_contractId].timelock <= now, \"refundable: timelock not yet passed\");\n        _;\n    }\n\n    mapping (bytes32 => LockContract) contracts;\n\n    /**\n     * @dev Sender sets up a new hash time lock contract depositing the ETH and\n     * providing the reciever lock terms.\n     *\n     * @param _receiver Receiver of the ETH.\n     * @param _k0 The randomness used for sig_prev. \n     * @param _timelock UNIX epoch seconds time that the lock expires at.\n     *                  Refunds can be made after this time.\n     * @return contractId Id of the new HTLC. This is needed for subsequent\n     *                    calls.\n     */\n    function newContract(address payable _receiver, uint256 _k0, uint _timelock)\n        external\n        payable\n        fundsSent\n        futureTimelock(_timelock)\n        returns (bytes32 contractId)\n    {\n        contractId = keccak256(\n            abi.encodePacked(\n                msg.sender,\n                _receiver,\n                msg.value,\n                _k0,\n                _timelock\n            )\n        );\n\n        // Reject if a contract already exists with the same parameters. The\n        // sender must change one of these parameters to create a new distinct\n        // contract.\n        if (haveContract(contractId))\n            revert(\"Contract already exists\");\n\n        contracts[contractId] = LockContract(\n            msg.sender,\n            _receiver,\n            msg.value,\n            _k0,\n            _timelock,\n            false,\n            false\n        );\n\n        emit LogHTLCNew(\n            contractId,\n            msg.sender,\n            _receiver,\n            msg.value,\n            _k0,\n            _timelock\n        );\n    }\n\n\n\n\n    /**\n     * @dev Called by the receiver once they know sk2.\n     * This will transfer the locked funds to their address.\n     *\n     * param _contractId Id of the HTLC.\n     * param _r2 randomness for signing m2.\n     * param _s2 signature of m2.\n     * @return bool true on success\n     */\n    function withdraw(WithDrawParam memory insert)\n        public\n        contractExists(insert._contractId)\n        s2lockMatches(insert)\n        withdrawable(insert._contractId)\n        returns (bool)\n    {\n        LockContract storage c = contracts[insert._contractId];\n        //c.sk2 = _preimage;\n        c.withdrawn = true;\n        c.receiver.transfer(c.amount);\n        emit LogHTLCWithdraw(insert._contractId);\n        return true;\n    }\n    \n    /**\n     * this is called as a pre-resolve function for inserting a struct\n     * bytes32 _contractId;\n        uint256 _r2;\n        uint256 _s2;\n        string _m2;\n     * \n     */\n      function getStruct(bytes32 s, uint256 a, uint256 b, uint256 c, string memory d) public returns(bool){\n      WithDrawParam memory input;\n      input._contractId = s;\n      input._r2 = a;\n      input._s2 = b;\n      input._k = c;\n      input._m2 = d;\n      if (withdraw(input) == true)\n      return true;\n  }\n    \n\n    /**\n     * @dev Called by the sender if there was no withdraw AND the time lock has\n     * expired. This will refund the contract amount.\n     *\n     * @param _contractId Id of HTLC to refund from.\n     * @return bool true on success\n     */\n    function refund(bytes32 _contractId)\n        external\n        contractExists(_contractId)\n        refundable(_contractId)\n        returns (bool)\n    {\n        LockContract storage c = contracts[_contractId];\n        c.refunded = true;\n        c.sender.transfer(c.amount);\n        emit LogHTLCRefund(_contractId);\n        return true;\n    }\n\n    /**\n     * @dev Get contract details.\n     * @param _contractId HTLC contract id\n     * return All parameters in struct LockContract for _contractId HTLC\n     */\n    function getContract(bytes32 _contractId) \n    public \n    view \n    returns (\n        address sender,\n        address receiver,\n        uint amount,\n        uint256 k0,\n        uint timelock,\n        bool withdrawn,\n        bool refunded)\n    {\n        if (haveContract(_contractId) == false)\n            return (address(0), address(0), 0, 0, 0, false, false);\n        LockContract storage c = contracts[_contractId];\n        return (\n            c.sender,\n            c.receiver,\n            c.amount,\n            c.k0,\n            c.timelock,\n            c.withdrawn,\n            c.refunded\n        );\n    }\n\n    /**\n     * @dev Is there a contract with id _contractId.\n     * @param _contractId Id into contracts mapping.\n     */\n    function haveContract(bytes32 _contractId)\n        internal\n        view\n        returns (bool exists)\n    {\n        exists = (contracts[_contractId].sender != address(0));\n    }\n\n}",
  "sourcePath": "/Users/dougchenli/truffle/FairTrade/contracts/Delgado.sol",
  "compiler": {
    "name": "solc",
    "version": "0.5.16+commit.9c3226ce.Emscripten.clang"
  },
  "schemaVersion": "3.4.1",
  "updatedAt": "2023-10-03T18:27:36.721Z",
  "networkType": "ethereum",
  "devdoc": {
    "methods": {
      "getContract(bytes32)": {
        "details": "Get contract details.",
        "params": {
          "_contractId": "HTLC contract id return All parameters in struct LockContract for _contractId HTLC"
        }
      },
      "newContract(address,uint256,uint256)": {
        "details": "Sender sets up a new hash time lock contract depositing the ETH and providing the reciever lock terms.",
        "params": {
          "_k0": "The randomness used for sig_prev. ",
          "_receiver": "Receiver of the ETH.",
          "_timelock": "UNIX epoch seconds time that the lock expires at.                 Refunds can be made after this time."
        },
        "return": "contractId Id of the new HTLC. This is needed for subsequent                   calls."
      },
      "refund(bytes32)": {
        "details": "Called by the sender if there was no withdraw AND the time lock has expired. This will refund the contract amount.",
        "params": {
          "_contractId": "Id of HTLC to refund from."
        },
        "return": "bool true on success"
      },
      "withdraw((bytes32,uint256,uint256,uint256,string))": {
        "details": "Called by the receiver once they know sk2. This will transfer the locked funds to their address.     * param _contractId Id of the HTLC. param _r2 randomness for signing m2. param _s2 signature of m2.",
        "return": "bool true on success"
      }
    },
    "title": "Hashed Timelock Contracts (HTLCs) on Ethereum ETH. * This contract provides a way to create and keep HTLCs for ETH. * See HashedTimelockERC20.sol for a contract that provides the same functions for ERC20 tokens. * Protocol: *  1) newContract(receiver, sk1, sk1y, timelock) - a sender calls this to create     a new HTLC and gets back a 32 byte contract id 2) withdraw(contractId, sk2) - once the receiver knows sk2      they can claim the ETH with this function 3) refund() - after timelock has expired and if the receiver did not     withdraw funds the sender / creator of the HTLC can get their ETH     back with this function."
  },
  "userdoc": {
    "methods": {
      "getStruct(bytes32,uint256,uint256,uint256,string)": {
        "notice": "this is called as a pre-resolve function for inserting a struct bytes32 _contractId; uint256 _r2; uint256 _s2; string _m2;      "
      }
    }
  }
}