{
  "contractName": "ExistingWork",
  "abi": [
    {
      "anonymous": false,
      "inputs": [
        {
          "indexed": true,
          "internalType": "bytes32",
          "name": "contractId",
          "type": "bytes32"
        },
        {
          "indexed": true,
          "internalType": "address",
          "name": "sender",
          "type": "address"
        },
        {
          "indexed": true,
          "internalType": "address",
          "name": "receiver",
          "type": "address"
        },
        {
          "indexed": false,
          "internalType": "uint256",
          "name": "amount",
          "type": "uint256"
        },
        {
          "indexed": false,
          "internalType": "uint256",
          "name": "r1",
          "type": "uint256"
        },
        {
          "indexed": false,
          "internalType": "uint256",
          "name": "timelock",
          "type": "uint256"
        }
      ],
      "name": "LogHTLCNew",
      "type": "event"
    },
    {
      "anonymous": false,
      "inputs": [
        {
          "indexed": true,
          "internalType": "bytes32",
          "name": "contractId",
          "type": "bytes32"
        }
      ],
      "name": "LogHTLCRefund",
      "type": "event"
    },
    {
      "anonymous": false,
      "inputs": [
        {
          "indexed": true,
          "internalType": "bytes32",
          "name": "contractId",
          "type": "bytes32"
        }
      ],
      "name": "LogHTLCWithdraw",
      "type": "event"
    },
    {
      "constant": true,
      "inputs": [],
      "name": "AA",
      "outputs": [
        {
          "internalType": "uint256",
          "name": "",
          "type": "uint256"
        }
      ],
      "payable": false,
      "stateMutability": "view",
      "type": "function"
    },
    {
      "constant": true,
      "inputs": [],
      "name": "GX",
      "outputs": [
        {
          "internalType": "uint256",
          "name": "",
          "type": "uint256"
        }
      ],
      "payable": false,
      "stateMutability": "view",
      "type": "function"
    },
    {
      "constant": true,
      "inputs": [],
      "name": "GY",
      "outputs": [
        {
          "internalType": "uint256",
          "name": "",
          "type": "uint256"
        }
      ],
      "payable": false,
      "stateMutability": "view",
      "type": "function"
    },
    {
      "constant": true,
      "inputs": [],
      "name": "NN",
      "outputs": [
        {
          "internalType": "uint256",
          "name": "",
          "type": "uint256"
        }
      ],
      "payable": false,
      "stateMutability": "view",
      "type": "function"
    },
    {
      "constant": true,
      "inputs": [],
      "name": "PP",
      "outputs": [
        {
          "internalType": "uint256",
          "name": "",
          "type": "uint256"
        }
      ],
      "payable": false,
      "stateMutability": "view",
      "type": "function"
    },
    {
      "constant": true,
      "inputs": [],
      "name": "qx",
      "outputs": [
        {
          "internalType": "uint256",
          "name": "",
          "type": "uint256"
        }
      ],
      "payable": false,
      "stateMutability": "view",
      "type": "function"
    },
    {
      "constant": true,
      "inputs": [],
      "name": "qy",
      "outputs": [
        {
          "internalType": "uint256",
          "name": "",
          "type": "uint256"
        }
      ],
      "payable": false,
      "stateMutability": "view",
      "type": "function"
    },
    {
      "constant": false,
      "inputs": [
        {
          "internalType": "address payable",
          "name": "_receiver",
          "type": "address"
        },
        {
          "internalType": "uint256",
          "name": "_r1",
          "type": "uint256"
        },
        {
          "internalType": "uint256",
          "name": "_timelock",
          "type": "uint256"
        }
      ],
      "name": "newContract",
      "outputs": [
        {
          "internalType": "bytes32",
          "name": "contractId",
          "type": "bytes32"
        }
      ],
      "payable": true,
      "stateMutability": "payable",
      "type": "function"
    },
    {
      "constant": false,
      "inputs": [
        {
          "components": [
            {
              "internalType": "bytes32",
              "name": "_contractId",
              "type": "bytes32"
            },
            {
              "internalType": "uint256",
              "name": "_r2",
              "type": "uint256"
            },
            {
              "internalType": "uint256",
              "name": "_s2",
              "type": "uint256"
            },
            {
              "internalType": "string",
              "name": "_m2",
              "type": "string"
            }
          ],
          "internalType": "struct ExistingWork.WithDrawParam",
          "name": "insert",
          "type": "tuple"
        }
      ],
      "name": "withdraw",
      "outputs": [
        {
          "internalType": "bool",
          "name": "",
          "type": "bool"
        }
      ],
      "payable": false,
      "stateMutability": "nonpayable",
      "type": "function"
    },
    {
      "constant": false,
      "inputs": [
        {
          "internalType": "bytes32",
          "name": "s",
          "type": "bytes32"
        },
        {
          "internalType": "uint256",
          "name": "a",
          "type": "uint256"
        },
        {
          "internalType": "uint256",
          "name": "b",
          "type": "uint256"
        },
        {
          "internalType": "string",
          "name": "c",
          "type": "string"
        }
      ],
      "name": "getStruct",
      "outputs": [
        {
          "internalType": "bool",
          "name": "",
          "type": "bool"
        }
      ],
      "payable": false,
      "stateMutability": "nonpayable",
      "type": "function"
    },
    {
      "constant": false,
      "inputs": [
        {
          "internalType": "bytes32",
          "name": "_contractId",
          "type": "bytes32"
        }
      ],
      "name": "refund",
      "outputs": [
        {
          "internalType": "bool",
          "name": "",
          "type": "bool"
        }
      ],
      "payable": false,
      "stateMutability": "nonpayable",
      "type": "function"
    },
    {
      "constant": true,
      "inputs": [
        {
          "internalType": "bytes32",
          "name": "_contractId",
          "type": "bytes32"
        }
      ],
      "name": "getContract",
      "outputs": [
        {
          "internalType": "address",
          "name": "sender",
          "type": "address"
        },
        {
          "internalType": "address",
          "name": "receiver",
          "type": "address"
        },
        {
          "internalType": "uint256",
          "name": "amount",
          "type": "uint256"
        },
        {
          "internalType": "uint256",
          "name": "r1",
          "type": "uint256"
        },
        {
          "internalType": "uint256",
          "name": "timelock",
          "type": "uint256"
        },
        {
          "internalType": "bool",
          "name": "withdrawn",
          "type": "bool"
        },
        {
          "internalType": "bool",
          "name": "refunded",
          "type": "bool"
        }
      ],
      "payable": false,
      "stateMutability": "view",
      "type": "function"
    }
  ],
  "bytecode": "0x608060405234801561001057600080fd5b50612668806100206000396000f3fe6080604052600436106100a75760003560e01c80639870e2a4116100645780639870e2a4146101c5578063997da8d4146101f05780639b7849c31461021b578063de30ed3814610258578063e16c7d9814610295578063eeeac01e146102d8576100a7565b806303a507be146100ac57806347e6814c146100d75780636cd03d5d146101025780637249fbb61461012d5780637a308a4c1461016a5780637b8d474414610195575b600080fd5b3480156100b857600080fd5b506100c1610303565b6040516100ce9190612401565b60405180910390f35b3480156100e357600080fd5b506100ec610327565b6040516100f99190612401565b60405180910390f35b34801561010e57600080fd5b5061011761034b565b6040516101249190612401565b60405180910390f35b34801561013957600080fd5b50610154600480360361014f9190810190611b54565b61036f565b60405161016191906121eb565b60405180910390f35b34801561017657600080fd5b5061017f610663565b60405161018c9190612401565b60405180910390f35b6101af60048036036101aa9190810190611b05565b610687565b6040516101bc9190612206565b60405180910390f35b3480156101d157600080fd5b506101da610960565b6040516101e79190612401565b60405180910390f35b3480156101fc57600080fd5b50610205610984565b6040516102129190612401565b60405180910390f35b34801561022757600080fd5b50610242600480360361023d9190810190611b7d565b610989565b60405161024f91906121eb565b60405180910390f35b34801561026457600080fd5b5061027f600480360361027a9190810190611bf8565b6109e3565b60405161028c91906121eb565b60405180910390f35b3480156102a157600080fd5b506102bc60048036036102b79190810190611b54565b610f59565b6040516102cf979695949392919061217c565b60405180910390f35b3480156102e457600080fd5b506102ed611059565b6040516102fa9190612401565b60405180910390f35b7f79be667ef9dcbbac55a06295ce870b07029bfcdb2dce28d959f2815b16f8179881565b7fe493dbf1c10d80f3581e4904930b1404cc6c13900ee0758474fa94abe8c4cd1381565b7f51ed993ea0d455b75642e2098ea51448d967ae33bfbdfe40cfe97bdc4773992281565b60008161037b8161107d565b6103ba576040517f08c379a00000000000000000000000000000000000000000000000000000000081526004016103b190612261565b60405180910390fd5b823373ffffffffffffffffffffffffffffffffffffffff1660008083815260200190815260200160002060000160009054906101000a900473ffffffffffffffffffffffffffffffffffffffff1673ffffffffffffffffffffffffffffffffffffffff161461045e576040517f08c379a0000000000000000000000000000000000000000000000000000000008152600401610455906123a1565b60405180910390fd5b6000151560008083815260200190815260200160002060050160019054906101000a900460ff161515146104c7576040517f08c379a00000000000000000000000000000000000000000000000000000000081526004016104be90612341565b60405180910390fd5b6000151560008083815260200190815260200160002060050160009054906101000a900460ff16151514610530576040517f08c379a000000000000000000000000000000000000000000000000000000000815260040161052790612281565b60405180910390fd5b42600080838152602001908152602001600020600401541115610588576040517f08c379a000000000000000000000000000000000000000000000000000000000815260040161057f906122e1565b60405180910390fd5b6000806000868152602001908152602001600020905060018160050160016101000a81548160ff0219169083151502179055508060000160009054906101000a900473ffffffffffffffffffffffffffffffffffffffff1673ffffffffffffffffffffffffffffffffffffffff166108fc82600201549081150290604051600060405180830381858888f19350505050158015610629573d6000803e3d6000fd5b50847f989b3a845197c9aec15f8982bbb30b5da714050e662a7a287bb1a94c81e2e70e60405160405180910390a260019350505050919050565b7f483ada7726a3c4655da4fbfc0e1108a8fd17b448a68554199c47d08ffb10d4b881565b60008034116106cb576040517f08c379a00000000000000000000000000000000000000000000000000000000081526004016106c290612381565b60405180910390fd5b8142811161070e576040517f08c379a000000000000000000000000000000000000000000000000000000000815260040161070590612221565b60405180910390fd5b3385348686604051602001610727959493929190612106565b6040516020818303038152906040528051906020012091506107488261107d565b15610788576040517f08c379a000000000000000000000000000000000000000000000000000000000815260040161077f906122c1565b60405180910390fd5b6040518060e001604052803373ffffffffffffffffffffffffffffffffffffffff1681526020018673ffffffffffffffffffffffffffffffffffffffff1681526020013481526020018581526020018481526020016000151581526020016000151581525060008084815260200190815260200160002060008201518160000160006101000a81548173ffffffffffffffffffffffffffffffffffffffff021916908373ffffffffffffffffffffffffffffffffffffffff16021790555060208201518160010160006101000a81548173ffffffffffffffffffffffffffffffffffffffff021916908373ffffffffffffffffffffffffffffffffffffffff16021790555060408201518160020155606082015181600301556080820151816004015560a08201518160050160006101000a81548160ff02191690831515021790555060c08201518160050160016101000a81548160ff0219169083151502179055509050508473ffffffffffffffffffffffffffffffffffffffff163373ffffffffffffffffffffffffffffffffffffffff16837fc4ce197adee1e1488861f5fb1e12c3c37732139cc655eee7efde872311dfe3593488886040516109509392919061241c565b60405180910390a4509392505050565b7ffffffffffffffffffffffffffffffffebaaedce6af48a03bbfd25e8cd036414181565b600081565b6000610993611945565b858160000181815250508481602001818152505083816040018181525050828160600181905250600115156109c7826109e3565b151514156109d95760019150506109db565b505b949350505050565b600081600001516109f38161107d565b610a32576040517f08c379a0000000000000000000000000000000000000000000000000000000008152600401610a2990612261565b60405180910390fd5b8260008160600151604051602001610a4a9190612165565b60405160208183030381529060405280519060200120905060008160001c90506000610a9a84604001517ffffffffffffffffffffffffffffffffebaaedce6af48a03bbfd25e8cd03641416110eb565b90507ffffffffffffffffffffffffffffffffebaaedce6af48a03bbfd25e8cd03641418181610ac557fe5b0690507ffffffffffffffffffffffffffffffffebaaedce6af48a03bbfd25e8cd036414181830281610af357fe5b0691507ffffffffffffffffffffffffffffffffebaaedce6af48a03bbfd25e8cd03641418185602001510281610b2557fe5b069050600080610b99847f79be667ef9dcbbac55a06295ce870b07029bfcdb2dce28d959f2815b16f817987f483ada7726a3c4655da4fbfc0e1108a8fd17b448a68554199c47d08ffb10d4b860007ffffffffffffffffffffffffffffffffffffffffffffffffffffffffefffffc2f6111b0565b8092508193505050610c0f837fe493dbf1c10d80f3581e4904930b1404cc6c13900ee0758474fa94abe8c4cd137f51ed993ea0d455b75642e2098ea51448d967ae33bfbdfe40cfe97bdc4773992260007ffffffffffffffffffffffffffffffffffffffffffffffffffffffffefffffc2f6111b0565b8094508195505050610c468282868660007ffffffffffffffffffffffffffffffffffffffffffffffffffffffffefffffc2f6111ea565b80925081935050508560200151600080886000015181526020019081526020016000206003015414610cad576040517f08c379a0000000000000000000000000000000000000000000000000000000008152600401610ca4906122a1565b60405180910390fd5b81600080886000015181526020019081526020016000206003015414610d08576040517f08c379a0000000000000000000000000000000000000000000000000000000008152600401610cff90612301565b60405180910390fd5b88600001513373ffffffffffffffffffffffffffffffffffffffff1660008083815260200190815260200160002060010160009054906101000a900473ffffffffffffffffffffffffffffffffffffffff1673ffffffffffffffffffffffffffffffffffffffff1614610db0576040517f08c379a0000000000000000000000000000000000000000000000000000000008152600401610da790612241565b60405180910390fd5b6000151560008083815260200190815260200160002060050160009054906101000a900460ff16151514610e19576040517f08c379a0000000000000000000000000000000000000000000000000000000008152600401610e1090612361565b60405180910390fd5b426000808381526020019081526020016000206004015411610e70576040517f08c379a0000000000000000000000000000000000000000000000000000000008152600401610e67906123e1565b60405180910390fd5b60008060008c600001518152602001908152602001600020905060018160050160006101000a81548160ff0219169083151502179055508060010160009054906101000a900473ffffffffffffffffffffffffffffffffffffffff1673ffffffffffffffffffffffffffffffffffffffff166108fc82600201549081150290604051600060405180830381858888f19350505050158015610f15573d6000803e3d6000fd5b508a600001517fd6fd4c8e45bf0c70693141c7ce46451b6a6a28ac8386fca2ba914044e0e2391660405160405180910390a260019950505050505050505050919050565b6000806000806000806000801515610f708961107d565b15151415610fa5576000806000806000806000869650859550849450839350829250965096509650965096509650965061104e565b60008060008a815260200190815260200160002090508060000160009054906101000a900473ffffffffffffffffffffffffffffffffffffffff168160010160009054906101000a900473ffffffffffffffffffffffffffffffffffffffff168260020154836003015484600401548560050160009054906101000a900460ff168660050160019054906101000a900460ff168696508595509750975097509750975097509750505b919395979092949650565b7ffffffffffffffffffffffffffffffffffffffffffffffffffffffffefffffc2f81565b60008073ffffffffffffffffffffffffffffffffffffffff1660008084815260200190815260200160002060000160009054906101000a900473ffffffffffffffffffffffffffffffffffffffff1673ffffffffffffffffffffffffffffffffffffffff1614159050919050565b60008083141580156110fd5750818314155b801561110a575060008214155b611149576040517f08c379a0000000000000000000000000000000000000000000000000000000008152600401611140906123c1565b60405180910390fd5b6000809050600060019050600084905060005b600087146111a35786828161116d57fe5b04905082868061117957fe5b878061118157fe5b858409880386088094508195505050868782028303809850819350505061115c565b8394505050505092915050565b60008060008060006111c78a8a8a60018b8b611288565b9250925092506111d98383838961132d565b945094505050509550959350505050565b600080600080905060008090506000809050888b141561124b576000868061120e57fe5b898c08141561122c576000808191508090509450945050505061127d565b61123a8b8b60018a8a611388565b809350819450829550505050611269565b61125c8b8b60018c8c60018c6114a7565b8093508194508295505050505b6112758383838961132d565b945094505050505b965096945050505050565b6000806000808914156112a357878787925092509250611321565b6000899050600080905060008090506000600190505b6000841461131357600060018516146112e8576112db8383838f8f8f8e6114a7565b8093508194508295505050505b600284816112f257fe5b0493506113028c8c8c8c8c611388565b809c50819d50829e505050506112b9565b828282965096509650505050505b96509650969350505050565b600080600061133c85856110eb565b90506000848061134857fe5b82830990506000858061135757fe5b828a0990506000868061136657fe5b878061136e57fe5b8486098a0990508181955095505050505094509492505050565b6000806000808614156113a35787878792509250925061149c565b600084806113ad57fe5b898a099050600085806113bc57fe5b898a099050600086806113cb57fe5b898a099050600087806113da57fe5b88806113e257fe5b848e096004099050600088806113f457fe5b89806113fc57fe5b8a8061140457fe5b8586098c098a8061141157fe5b87600309089050888061142057fe5b898061142857fe5b8384088a038a8061143557fe5b838409089450888061144357fe5b898061144b57fe5b8a8061145357fe5b8687096008098a038a8061146357fe5b8b8061146b57fe5b888d0386088409089350888061147d57fe5b898061148557fe5b8c8e09600209925084848497509750975050505050505b955095509592505050565b6000806000808a1480156114bb5750600089145b156114ce57868686925092509250611938565b6000871480156114de5750600086145b156114f157898989925092509250611938565b6114f9611970565b848061150157fe5b898a098160006004811061151157fe5b602002018181525050848061152257fe5b8160006004811061152f57fe5b60200201518a098160016004811061154357fe5b602002018181525050848061155457fe5b8687098160026004811061156457fe5b602002018181525050848061157557fe5b8160026004811061158257fe5b602002015187098160036004811061159657fe5b602002018181525050604051806080016040528086806115b257fe5b836002600481106115bf57fe5b60200201518e09815260200186806115d357fe5b836003600481106115e057fe5b60200201518d09815260200186806115f457fe5b8360006004811061160157fe5b60200201518b098152602001868061161557fe5b8360016004811061162257fe5b60200201518a0981525090508060026004811061163b57fe5b60200201518160006004811061164d57fe5b602002015114158061168157508060036004811061166757fe5b60200201518160016004811061167957fe5b602002015114155b6116c0576040517f08c379a00000000000000000000000000000000000000000000000000000000081526004016116b790612321565b60405180910390fd5b6116c8611970565b85806116d057fe5b826000600481106116dd57fe5b60200201518703836002600481106116f157fe5b6020020151088160006004811061170457fe5b602002018181525050858061171557fe5b8260016004811061172257fe5b602002015187038360036004811061173657fe5b6020020151088160016004811061174957fe5b602002018181525050858061175a57fe5b8160006004811061176757fe5b60200201518260006004811061177957fe5b6020020151098160026004811061178c57fe5b602002018181525050858061179d57fe5b816000600481106117aa57fe5b6020020151826002600481106117bc57fe5b602002015109816003600481106117cf57fe5b602002018181525050600086806117e257fe5b826003600481106117ef57fe5b6020020151880388806117fe57fe5b8460016004811061180b57fe5b60200201518560016004811061181d57fe5b602002015109089050868061182e57fe5b878061183657fe5b888061183e57fe5b8460026004811061184b57fe5b60200201518660006004811061185d57fe5b6020020151096002098803820890506000878061187657fe5b888061187e57fe5b838a038a8061188957fe5b8660026004811061189657fe5b6020020151886000600481106118a857fe5b60200201510908846001600481106118bc57fe5b602002015109905087806118cc57fe5b88806118d457fe5b846003600481106118e157fe5b6020020151866001600481106118f357fe5b6020020151098903820890506000888061190957fe5b898061191157fe5b8b8f098560006004811061192157fe5b602002015109905082828297509750975050505050505b9750975097945050505050565b6040518060800160405280600080191681526020016000815260200160008152602001606081525090565b6040518060800160405280600490602082028038833980820191505090505090565b6000813590506119a1816125e0565b92915050565b6000813590506119b6816125f7565b92915050565b600082601f8301126119cd57600080fd5b81356119e06119db82612480565b612453565b915080825260208301602083018583830111156119fc57600080fd5b611a07838284612563565b50505092915050565b600082601f830112611a2157600080fd5b8135611a34611a2f826124ac565b612453565b91508082526020830160208301858383011115611a5057600080fd5b611a5b838284612563565b50505092915050565b600060808284031215611a7657600080fd5b611a806080612453565b90506000611a90848285016119a7565b6000830152506020611aa484828501611af0565b6020830152506040611ab884828501611af0565b604083015250606082013567ffffffffffffffff811115611ad857600080fd5b611ae4848285016119bc565b60608301525092915050565b600081359050611aff8161260e565b92915050565b600080600060608486031215611b1a57600080fd5b6000611b2886828701611992565b9350506020611b3986828701611af0565b9250506040611b4a86828701611af0565b9150509250925092565b600060208284031215611b6657600080fd5b6000611b74848285016119a7565b91505092915050565b60008060008060808587031215611b9357600080fd5b6000611ba1878288016119a7565b9450506020611bb287828801611af0565b9350506040611bc387828801611af0565b925050606085013567ffffffffffffffff811115611be057600080fd5b611bec87828801611a10565b91505092959194509250565b600060208284031215611c0a57600080fd5b600082013567ffffffffffffffff811115611c2457600080fd5b611c3084828501611a64565b91505092915050565b611c4a611c4582612511565b6125a5565b82525050565b611c59816124ff565b82525050565b611c6881612523565b82525050565b611c778161252f565b82525050565b6000611c88826124d8565b611c9281856124f4565b9350611ca2818560208601612572565b80840191505092915050565b6000611cbb6023836124e3565b91507f74696d656c6f636b2074696d65206d75737420626520696e207468652066757460008301527f75726500000000000000000000000000000000000000000000000000000000006020830152604082019050919050565b6000611d21601a836124e3565b91507f776974686472617761626c653a206e6f742072656365697665720000000000006000830152602082019050919050565b6000611d616019836124e3565b91507f636f6e7472616374496420646f6573206e6f74206578697374000000000000006000830152602082019050919050565b6000611da1601d836124e3565b91507f726566756e6461626c653a20616c72656164792077697468647261776e0000006000830152602082019050919050565b6000611de16019836124e3565b91507f72616e646f6d6e65737320646f6573206e6f74206d61746368000000000000006000830152602082019050919050565b6000611e216017836124e3565b91507f436f6e747261637420616c7265616479206578697374730000000000000000006000830152602082019050919050565b6000611e616023836124e3565b91507f726566756e6461626c653a2074696d656c6f636b206e6f74207965742070617360008301527f73656400000000000000000000000000000000000000000000000000000000006020830152604082019050919050565b6000611ec76018836124e3565b91507f7369676e617475726520646f6573206e6f74206d6174636800000000000000006000830152602082019050919050565b6000611f07601e836124e3565b91507f557365206a6163446f75626c652066756e6374696f6e20696e737465616400006000830152602082019050919050565b6000611f47601c836124e3565b91507f726566756e6461626c653a20616c726561647920726566756e646564000000006000830152602082019050919050565b6000611f87601f836124e3565b91507f776974686472617761626c653a20616c72656164792077697468647261776e006000830152602082019050919050565b6000611fc76015836124e3565b91507f6d73672e76616c7565206d757374206265203e203000000000000000000000006000830152602082019050919050565b60006120076016836124e3565b91507f726566756e6461626c653a206e6f742073656e646572000000000000000000006000830152602082019050919050565b6000612047600e836124e3565b91507f496e76616c6964206e756d6265720000000000000000000000000000000000006000830152602082019050919050565b60006120876031836124e3565b91507f776974686472617761626c653a2074696d656c6f636b2074696d65206d75737460008301527f20626520696e20746865206675747572650000000000000000000000000000006020830152604082019050919050565b6120e981612559565b82525050565b6121006120fb82612559565b6125c9565b82525050565b60006121128288611c39565b6014820191506121228287611c39565b60148201915061213282866120ef565b60208201915061214282856120ef565b60208201915061215282846120ef565b6020820191508190509695505050505050565b60006121718284611c7d565b915081905092915050565b600060e082019050612191600083018a611c50565b61219e6020830189611c50565b6121ab60408301886120e0565b6121b860608301876120e0565b6121c560808301866120e0565b6121d260a0830185611c5f565b6121df60c0830184611c5f565b98975050505050505050565b60006020820190506122006000830184611c5f565b92915050565b600060208201905061221b6000830184611c6e565b92915050565b6000602082019050818103600083015261223a81611cae565b9050919050565b6000602082019050818103600083015261225a81611d14565b9050919050565b6000602082019050818103600083015261227a81611d54565b9050919050565b6000602082019050818103600083015261229a81611d94565b9050919050565b600060208201905081810360008301526122ba81611dd4565b9050919050565b600060208201905081810360008301526122da81611e14565b9050919050565b600060208201905081810360008301526122fa81611e54565b9050919050565b6000602082019050818103600083015261231a81611eba565b9050919050565b6000602082019050818103600083015261233a81611efa565b9050919050565b6000602082019050818103600083015261235a81611f3a565b9050919050565b6000602082019050818103600083015261237a81611f7a565b9050919050565b6000602082019050818103600083015261239a81611fba565b9050919050565b600060208201905081810360008301526123ba81611ffa565b9050919050565b600060208201905081810360008301526123da8161203a565b9050919050565b600060208201905081810360008301526123fa8161207a565b9050919050565b600060208201905061241660008301846120e0565b92915050565b600060608201905061243160008301866120e0565b61243e60208301856120e0565b61244b60408301846120e0565b949350505050565b6000604051905081810181811067ffffffffffffffff8211171561247657600080fd5b8060405250919050565b600067ffffffffffffffff82111561249757600080fd5b601f19601f8301169050602081019050919050565b600067ffffffffffffffff8211156124c357600080fd5b601f19601f8301169050602081019050919050565b600081519050919050565b600082825260208201905092915050565b600081905092915050565b600061250a82612539565b9050919050565b600061251c82612539565b9050919050565b60008115159050919050565b6000819050919050565b600073ffffffffffffffffffffffffffffffffffffffff82169050919050565b6000819050919050565b82818337600083830152505050565b60005b83811015612590578082015181840152602081019050612575565b8381111561259f576000848401525b50505050565b60006125b0826125b7565b9050919050565b60006125c2826125d3565b9050919050565b6000819050919050565b60008160601b9050919050565b6125e981612511565b81146125f457600080fd5b50565b6126008161252f565b811461260b57600080fd5b50565b61261781612559565b811461262257600080fd5b5056fea365627a7a72315820430b818aef3b37c9d8f3a58b34bb253d81a648fc9b90280a41bd272a3b6a5df26c6578706572696d656e74616cf564736f6c63430005100040",
  "source": "// SPDX-License-Identifier: MIT\n\npragma solidity ^0.5.0;\npragma experimental ABIEncoderV2;\n\nimport \"./EllipticCurve.sol\";\n\n/**\n * @title Hashed Timelock Contracts (HTLCs) on Ethereum ETH.\n *\n * This contract provides a way to create and keep HTLCs for ETH.\n *\n * See ExistingWorkERC20.sol for a contract that provides the same functions\n * for ERC20 tokens.\n *\n * Protocol:\n *\n *  1) newContract(receiver, sk1, sk1y, timelock) - a sender calls this to create\n *      a new HTLC and gets back a 32 byte contract id\n *  2) withdraw(contractId, sk2) - once the receiver knows sk2 \n *      they can claim the ETH with this function\n *  3) refund() - after timelock has expired and if the receiver did not\n *      withdraw funds the sender / creator of the HTLC can get their ETH\n *      back with this function.\n */\ncontract ExistingWork {\n\n    event LogHTLCNew(\n        bytes32 indexed contractId,\n        address indexed sender,\n        address indexed receiver,\n        uint amount,\n        uint256 r1,\n        uint timelock\n    );\n    event LogHTLCWithdraw(bytes32 indexed contractId);\n    event LogHTLCRefund(bytes32 indexed contractId);\n\n    struct LockContract {\n        address payable sender;\n        address payable receiver;\n        uint amount;\n        uint256 r1; //the randomness r1 used by the seller(receiver) for the first signature sig_prev\n        //string m2; //the message m2 negotiated between two parties, which will be signed by the seller(receiver) \n        uint timelock; // UNIX timestamp seconds - locked UNTIL this time\n        bool withdrawn;\n        bool refunded;\n    }\n    \n    struct WithDrawParam {\n        bytes32 _contractId;\n        uint256 _r2;\n        uint256 _s2;\n        string _m2;\n    }\n    \n    //WithDrawParam[] public WDPs;\n    \n    //Some parameters from Elliptic Curve (secp256k1)\n    uint256 public constant GX = 0x79BE667EF9DCBBAC55A06295CE870B07029BFCDB2DCE28D959F2815B16F81798;\n    uint256 public constant GY = 0x483ADA7726A3C4655DA4FBFC0E1108A8FD17B448A68554199C47D08FFB10D4B8;\n    uint256 public constant AA = 0;\n    uint256 public constant PP = 0xFFFFFFFFFFFFFFFFFFFFFFFFFFFFFFFFFFFFFFFFFFFFFFFFFFFFFFFEFFFFFC2F;\n    uint256 public constant NN = 115792089237316195423570985008687907852837564279074904382605163141518161494337;    //order of secp256k1\n    uint256 public constant qx = 103388573995635080359749164254216598308788835304023601477803095234286494993683;    //public key pair (x,y)\n    uint256 public constant qy = 37057141145242123013015316630864329550140216928701153669873286428255828810018;\n    //uint256 public constant r2 = 21505829891763648114329055987619236494102133314575206970830385799158076338148;\n    //uint256 public constant s2 = 62560875960789245167310124323518749634184838256435621860459318052048061205369;\n\n    modifier fundsSent() {\n        require(msg.value > 0, \"msg.value must be > 0\");\n        _;\n    }\n    modifier futureTimelock(uint _time) {\n        // only requirement is the timelock time is after the last blocktime (now).\n        // probably want something a bit further in the future then this.\n        // but this is still a useful sanity check:\n        require(_time > now, \"timelock time must be in the future\");\n        _;\n    }\n    modifier contractExists(bytes32 _contractId) {\n        require(haveContract(_contractId), \"contractId does not exist\");\n        _;\n    }\n    /***\n    modifier s2lockMatches(bytes32 _contractId, uint256 _r2, uint256 _s2, string memory _m2) {\n        //signature s2 verification\n        bytes32 e = keccak256(abi.encodePacked(_m2));\n        uint256 z = uint256(e);\n        uint256 w = EllipticCurve.invMod(_s2,NN);\n        w = w % NN;\n        z = (z * w) % NN;\n        w = (_r2 * w) % NN;\n        uint256 x1;\n        uint256 y1;\n        (x1,y1) = EllipticCurve.ecMul(z,GX,GY,AA,PP); \n        (z,w) = EllipticCurve.ecMul(w,qx,qy,AA,PP); \n        (x1,y1) = EllipticCurve.ecAdd(x1,y1,z,w,AA,PP);\n        require(contracts[_contractId].r1 == _r2, \"randomness does not match\");\n        require(contracts[_contractId].r1 == x1, \"signature does not match\");\n        _;\n    }\n    ***/\n    \n    modifier s2lockMatches(WithDrawParam memory insert) {\n        //signature s2 verification\n        bytes32 e = keccak256(abi.encodePacked(insert._m2));\n        uint256 z = uint256(e);\n        uint256 w = EllipticCurve.invMod(insert._s2,NN);\n        w = w % NN;\n        z = (z * w) % NN;\n        w = (insert._r2 * w) % NN;\n        uint256 x1;\n        uint256 y1;\n        (x1,y1) = EllipticCurve.ecMul(z,GX,GY,AA,PP); \n        (z,w) = EllipticCurve.ecMul(w,qx,qy,AA,PP); \n        (x1,y1) = EllipticCurve.ecAdd(x1,y1,z,w,AA,PP);\n        require(contracts[insert._contractId].r1 == insert._r2, \"randomness does not match\");\n        require(contracts[insert._contractId].r1 == x1, \"signature does not match\");\n        _;\n    }\n    \n    modifier withdrawable(bytes32 _contractId) {\n        require(contracts[_contractId].receiver == msg.sender, \"withdrawable: not receiver\");\n        require(contracts[_contractId].withdrawn == false, \"withdrawable: already withdrawn\");\n        require(contracts[_contractId].timelock > now, \"withdrawable: timelock time must be in the future\");\n        _;\n    }\n    modifier refundable(bytes32 _contractId) {\n        require(contracts[_contractId].sender == msg.sender, \"refundable: not sender\");\n        require(contracts[_contractId].refunded == false, \"refundable: already refunded\");\n        require(contracts[_contractId].withdrawn == false, \"refundable: already withdrawn\");\n        require(contracts[_contractId].timelock <= now, \"refundable: timelock not yet passed\");\n        _;\n    }\n\n    mapping (bytes32 => LockContract) contracts;\n\n    /**\n     * @dev Sender sets up a new hash time lock contract depositing the ETH and\n     * providing the reciever lock terms.\n     *\n     * @param _receiver Receiver of the ETH.\n     * @param _r1 The randomness used for sig_prev. \n     * @param _timelock UNIX epoch seconds time that the lock expires at.\n     *                  Refunds can be made after this time.\n     * @return contractId Id of the new HTLC. This is needed for subsequent\n     *                    calls.\n     */\n    function newContract(address payable _receiver, uint256 _r1, uint _timelock)\n        external\n        payable\n        fundsSent\n        futureTimelock(_timelock)\n        returns (bytes32 contractId)\n    {\n        contractId = keccak256(\n            abi.encodePacked(\n                msg.sender,\n                _receiver,\n                msg.value,\n                _r1,\n                _timelock\n            )\n        );\n\n        // Reject if a contract already exists with the same parameters. The\n        // sender must change one of these parameters to create a new distinct\n        // contract.\n        if (haveContract(contractId))\n            revert(\"Contract already exists\");\n\n        contracts[contractId] = LockContract(\n            msg.sender,\n            _receiver,\n            msg.value,\n            _r1,\n            _timelock,\n            false,\n            false\n        );\n\n        emit LogHTLCNew(\n            contractId,\n            msg.sender,\n            _receiver,\n            msg.value,\n            _r1,\n            _timelock\n        );\n    }\n\n\n\n\n    /**\n     * @dev Called by the receiver once they know sk2.\n     * This will transfer the locked funds to their address.\n     *\n     * param _contractId Id of the HTLC.\n     * param _r2 randomness for signing m2.\n     * param _s2 signature of m2.\n     * @return bool true on success\n     */\n    function withdraw(WithDrawParam memory insert)\n        public\n        contractExists(insert._contractId)\n        s2lockMatches(insert)\n        withdrawable(insert._contractId)\n        returns (bool)\n    {\n        LockContract storage c = contracts[insert._contractId];\n        //c.sk2 = _preimage;\n        c.withdrawn = true;\n        c.receiver.transfer(c.amount);\n        emit LogHTLCWithdraw(insert._contractId);\n        return true;\n    }\n    \n    /**\n     * this is called as a pre-resolve function for inserting a struct\n     * bytes32 _contractId;\n        uint256 _r2;\n        uint256 _s2;\n        string _m2;\n     * \n     */\n      function getStruct(bytes32 s, uint256 a, uint256 b, string memory c) public returns(bool){\n      WithDrawParam memory input;\n      input._contractId = s;\n      input._r2 = a;\n      input._s2 = b;\n      input._m2 = c;\n      if (withdraw(input) == true)\n      return true;\n  }\n    \n\n    /**\n     * @dev Called by the sender if there was no withdraw AND the time lock has\n     * expired. This will refund the contract amount.\n     *\n     * @param _contractId Id of HTLC to refund from.\n     * @return bool true on success\n     */\n    function refund(bytes32 _contractId)\n        external\n        contractExists(_contractId)\n        refundable(_contractId)\n        returns (bool)\n    {\n        LockContract storage c = contracts[_contractId];\n        c.refunded = true;\n        c.sender.transfer(c.amount);\n        emit LogHTLCRefund(_contractId);\n        return true;\n    }\n\n    /**\n     * @dev Get contract details.\n     * @param _contractId HTLC contract id\n     * return All parameters in struct LockContract for _contractId HTLC\n     */\n    function getContract(bytes32 _contractId) \n    public \n    view \n    returns (\n        address sender,\n        address receiver,\n        uint amount,\n        uint256 r1,\n        uint timelock,\n        bool withdrawn,\n        bool refunded)\n    {\n        if (haveContract(_contractId) == false)\n            return (address(0), address(0), 0, 0, 0, false, false);\n        LockContract storage c = contracts[_contractId];\n        return (\n            c.sender,\n            c.receiver,\n            c.amount,\n            c.r1,\n            c.timelock,\n            c.withdrawn,\n            c.refunded\n        );\n    }\n\n    /**\n     * @dev Is there a contract with id _contractId.\n     * @param _contractId Id into contracts mapping.\n     */\n    function haveContract(bytes32 _contractId)\n        internal\n        view\n        returns (bool exists)\n    {\n        exists = (contracts[_contractId].sender != address(0));\n    }\n\n}",
  "sourcePath": "/Users/dougchenli/truffle/FairTrade/contracts/ExistingWork.sol",
  "compiler": {
    "name": "solc",
    "version": "0.5.16+commit.9c3226ce.Emscripten.clang"
  },
  "schemaVersion": "3.4.1",
  "updatedAt": "2023-04-13T15:03:11.071Z",
  "networkType": "ethereum",
  "devdoc": {
    "methods": {
      "getContract(bytes32)": {
        "details": "Get contract details.",
        "params": {
          "_contractId": "HTLC contract id return All parameters in struct LockContract for _contractId HTLC"
        }
      },
      "newContract(address,uint256,uint256)": {
        "details": "Sender sets up a new hash time lock contract depositing the ETH and providing the reciever lock terms.",
        "params": {
          "_r1": "The randomness used for sig_prev. ",
          "_receiver": "Receiver of the ETH.",
          "_timelock": "UNIX epoch seconds time that the lock expires at.                 Refunds can be made after this time."
        },
        "return": "contractId Id of the new HTLC. This is needed for subsequent                   calls."
      },
      "refund(bytes32)": {
        "details": "Called by the sender if there was no withdraw AND the time lock has expired. This will refund the contract amount.",
        "params": {
          "_contractId": "Id of HTLC to refund from."
        },
        "return": "bool true on success"
      },
      "withdraw((bytes32,uint256,uint256,string))": {
        "details": "Called by the receiver once they know sk2. This will transfer the locked funds to their address.     * param _contractId Id of the HTLC. param _r2 randomness for signing m2. param _s2 signature of m2.",
        "return": "bool true on success"
      }
    },
    "title": "Hashed Timelock Contracts (HTLCs) on Ethereum ETH. * This contract provides a way to create and keep HTLCs for ETH. * See ExistingWorkERC20.sol for a contract that provides the same functions for ERC20 tokens. * Protocol: *  1) newContract(receiver, sk1, sk1y, timelock) - a sender calls this to create     a new HTLC and gets back a 32 byte contract id 2) withdraw(contractId, sk2) - once the receiver knows sk2      they can claim the ETH with this function 3) refund() - after timelock has expired and if the receiver did not     withdraw funds the sender / creator of the HTLC can get their ETH     back with this function."
  },
  "userdoc": {
    "methods": {
      "getStruct(bytes32,uint256,uint256,string)": {
        "notice": "this is called as a pre-resolve function for inserting a struct bytes32 _contractId; uint256 _r2; uint256 _s2; string _m2;      "
      }
    }
  }
}