{
  "contractName": "FairTradeExtImproved",
  "abi": [
    {
      "anonymous": false,
      "inputs": [
        {
          "indexed": true,
          "internalType": "bytes32",
          "name": "contractId",
          "type": "bytes32"
        },
        {
          "indexed": true,
          "internalType": "address",
          "name": "sender",
          "type": "address"
        },
        {
          "indexed": true,
          "internalType": "address",
          "name": "receiver",
          "type": "address"
        },
        {
          "indexed": false,
          "internalType": "bytes32",
          "name": "datahash",
          "type": "bytes32"
        },
        {
          "indexed": false,
          "internalType": "uint256",
          "name": "amount",
          "type": "uint256"
        },
        {
          "indexed": false,
          "internalType": "uint256",
          "name": "sk1x",
          "type": "uint256"
        },
        {
          "indexed": false,
          "internalType": "uint256",
          "name": "sk1y",
          "type": "uint256"
        },
        {
          "indexed": false,
          "internalType": "uint256",
          "name": "timelock",
          "type": "uint256"
        }
      ],
      "name": "LogHTLCNew",
      "type": "event"
    },
    {
      "anonymous": false,
      "inputs": [
        {
          "indexed": true,
          "internalType": "bytes32",
          "name": "contractId",
          "type": "bytes32"
        }
      ],
      "name": "LogHTLCRefund",
      "type": "event"
    },
    {
      "anonymous": false,
      "inputs": [
        {
          "indexed": true,
          "internalType": "bytes32",
          "name": "contractId",
          "type": "bytes32"
        }
      ],
      "name": "LogHTLCWithdraw",
      "type": "event"
    },
    {
      "constant": true,
      "inputs": [],
      "name": "AA",
      "outputs": [
        {
          "internalType": "uint256",
          "name": "",
          "type": "uint256"
        }
      ],
      "payable": false,
      "stateMutability": "view",
      "type": "function"
    },
    {
      "constant": true,
      "inputs": [],
      "name": "GX",
      "outputs": [
        {
          "internalType": "uint256",
          "name": "",
          "type": "uint256"
        }
      ],
      "payable": false,
      "stateMutability": "view",
      "type": "function"
    },
    {
      "constant": true,
      "inputs": [],
      "name": "GY",
      "outputs": [
        {
          "internalType": "uint256",
          "name": "",
          "type": "uint256"
        }
      ],
      "payable": false,
      "stateMutability": "view",
      "type": "function"
    },
    {
      "constant": true,
      "inputs": [],
      "name": "PP",
      "outputs": [
        {
          "internalType": "uint256",
          "name": "",
          "type": "uint256"
        }
      ],
      "payable": false,
      "stateMutability": "view",
      "type": "function"
    },
    {
      "constant": false,
      "inputs": [
        {
          "internalType": "address payable",
          "name": "_receiver",
          "type": "address"
        },
        {
          "internalType": "bytes32",
          "name": "_datahash",
          "type": "bytes32"
        },
        {
          "internalType": "uint256",
          "name": "_sk1x",
          "type": "uint256"
        },
        {
          "internalType": "uint256",
          "name": "_sk1y",
          "type": "uint256"
        },
        {
          "internalType": "uint256",
          "name": "_timelock",
          "type": "uint256"
        }
      ],
      "name": "newContract",
      "outputs": [
        {
          "internalType": "bytes32",
          "name": "contractId",
          "type": "bytes32"
        }
      ],
      "payable": true,
      "stateMutability": "payable",
      "type": "function"
    },
    {
      "constant": false,
      "inputs": [
        {
          "internalType": "bytes32",
          "name": "_contractId",
          "type": "bytes32"
        },
        {
          "internalType": "uint256",
          "name": "_sk2",
          "type": "uint256"
        }
      ],
      "name": "withdraw",
      "outputs": [
        {
          "internalType": "bool",
          "name": "",
          "type": "bool"
        }
      ],
      "payable": false,
      "stateMutability": "nonpayable",
      "type": "function"
    },
    {
      "constant": false,
      "inputs": [
        {
          "internalType": "bytes32",
          "name": "_contractId",
          "type": "bytes32"
        }
      ],
      "name": "refund",
      "outputs": [
        {
          "internalType": "bool",
          "name": "",
          "type": "bool"
        }
      ],
      "payable": false,
      "stateMutability": "nonpayable",
      "type": "function"
    },
    {
      "constant": true,
      "inputs": [
        {
          "internalType": "bytes32",
          "name": "_contractId",
          "type": "bytes32"
        }
      ],
      "name": "getContract",
      "outputs": [
        {
          "internalType": "address",
          "name": "sender",
          "type": "address"
        },
        {
          "internalType": "address",
          "name": "receiver",
          "type": "address"
        },
        {
          "internalType": "bytes32",
          "name": "datahash",
          "type": "bytes32"
        },
        {
          "internalType": "uint256",
          "name": "amount",
          "type": "uint256"
        },
        {
          "internalType": "uint256",
          "name": "sk1x",
          "type": "uint256"
        },
        {
          "internalType": "uint256",
          "name": "sk1y",
          "type": "uint256"
        },
        {
          "internalType": "uint256",
          "name": "timelock",
          "type": "uint256"
        },
        {
          "internalType": "bool",
          "name": "withdrawn",
          "type": "bool"
        },
        {
          "internalType": "bool",
          "name": "refunded",
          "type": "bool"
        }
      ],
      "payable": false,
      "stateMutability": "view",
      "type": "function"
    }
  ],
  "bytecode": "0x608060405234801561001057600080fd5b50611aef806100206000396000f3fe60806040526004361061007b5760003560e01c80637a308a4c1161004e5780637a308a4c146101db578063997da8d414610206578063e16c7d9814610231578063eeeac01e146103185761007b565b806303a507be14610080578063040cf020146100ab57806358541662146101085780637249fbb614610188575b600080fd5b34801561008c57600080fd5b50610095610343565b6040518082815260200191505060405180910390f35b3480156100b757600080fd5b506100ee600480360360408110156100ce57600080fd5b810190808035906020019092919080359060200190929190505050610367565b604051808215151515815260200191505060405180910390f35b610172600480360360a081101561011e57600080fd5b81019080803573ffffffffffffffffffffffffffffffffffffffff16906020019092919080359060200190929190803590602001909291908035906020019092919080359060200190929190505050610834565b6040518082815260200191505060405180910390f35b34801561019457600080fd5b506101c1600480360360208110156101ab57600080fd5b8101908080359060200190929190505050610c4f565b604051808215151515815260200191505060405180910390f35b3480156101e757600080fd5b506101f0611025565b6040518082815260200191505060405180910390f35b34801561021257600080fd5b5061021b611049565b6040518082815260200191505060405180910390f35b34801561023d57600080fd5b5061026a6004803603602081101561025457600080fd5b810190808035906020019092919050505061104e565b604051808a73ffffffffffffffffffffffffffffffffffffffff1673ffffffffffffffffffffffffffffffffffffffff1681526020018973ffffffffffffffffffffffffffffffffffffffff1673ffffffffffffffffffffffffffffffffffffffff1681526020018881526020018781526020018681526020018581526020018481526020018315151515815260200182151515158152602001995050505050505050505060405180910390f35b34801561032457600080fd5b5061032d61116d565b6040518082815260200191505060405180910390f35b7f79be667ef9dcbbac55a06295ce870b07029bfcdb2dce28d959f2815b16f8179881565b60008261037381611191565b6103e5576040517f08c379a00000000000000000000000000000000000000000000000000000000081526004018080602001828103825260198152602001807f636f6e7472616374496420646f6573206e6f742065786973740000000000000081525060200191505060405180910390fd5b8383600080610458837f79be667ef9dcbbac55a06295ce870b07029bfcdb2dce28d959f2815b16f817987f483ada7726a3c4655da4fbfc0e1108a8fd17b448a68554199c47d08ffb10d4b860007ffffffffffffffffffffffffffffffffffffffffffffffffffffffffefffffc2f6111ff565b80925081935050508160008086815260200190815260200160002060040154146104ea576040517f08c379a00000000000000000000000000000000000000000000000000000000081526004018080602001828103825260128152602001807f736b3220646f6573206e6f74206d61746368000000000000000000000000000081525060200191505060405180910390fd5b806000808681526020019081526020016000206005015414610574576040517f08c379a00000000000000000000000000000000000000000000000000000000081526004018080602001828103825260128152602001807f736b3220646f6573206e6f74206d61746368000000000000000000000000000081525060200191505060405180910390fd5b873373ffffffffffffffffffffffffffffffffffffffff1660008083815260200190815260200160002060010160009054906101000a900473ffffffffffffffffffffffffffffffffffffffff1673ffffffffffffffffffffffffffffffffffffffff161461064b576040517f08c379a000000000000000000000000000000000000000000000000000000000815260040180806020018281038252601a8152602001807f776974686472617761626c653a206e6f7420726563656976657200000000000081525060200191505060405180910390fd5b6000151560008083815260200190815260200160002060070160009054906101000a900460ff161515146106e7576040517f08c379a000000000000000000000000000000000000000000000000000000000815260040180806020018281038252601f8152602001807f776974686472617761626c653a20616c72656164792077697468647261776e0081525060200191505060405180910390fd5b426000808381526020019081526020016000206006015411610754576040517f08c379a0000000000000000000000000000000000000000000000000000000008152600401808060200182810382526031815260200180611a8a6031913960400191505060405180910390fd5b60008060008b8152602001908152602001600020905060018160070160006101000a81548160ff0219169083151502179055508060010160009054906101000a900473ffffffffffffffffffffffffffffffffffffffff1673ffffffffffffffffffffffffffffffffffffffff166108fc82600301549081150290604051600060405180830381858888f193505050501580156107f5573d6000803e3d6000fd5b50897fd6fd4c8e45bf0c70693141c7ce46451b6a6a28ac8386fca2ba914044e0e2391660405160405180910390a2600197505050505050505092915050565b60008034116108ab576040517f08c379a00000000000000000000000000000000000000000000000000000000081526004018080602001828103825260158152602001807f6d73672e76616c7565206d757374206265203e2030000000000000000000000081525060200191505060405180910390fd5b81428111610904576040517f08c379a0000000000000000000000000000000000000000000000000000000008152600401808060200182810382526023815260200180611a446023913960400191505060405180910390fd5b33878734888888604051602001808873ffffffffffffffffffffffffffffffffffffffff1673ffffffffffffffffffffffffffffffffffffffff1660601b81526014018773ffffffffffffffffffffffffffffffffffffffff1673ffffffffffffffffffffffffffffffffffffffff1660601b81526014018681526020018581526020018481526020018381526020018281526020019750505050505050506040516020818303038152906040528051906020012091506109c482611191565b15610a37576040517f08c379a00000000000000000000000000000000000000000000000000000000081526004018080602001828103825260178152602001807f436f6e747261637420616c72656164792065786973747300000000000000000081525060200191505060405180910390fd5b6040518061012001604052803373ffffffffffffffffffffffffffffffffffffffff1681526020018873ffffffffffffffffffffffffffffffffffffffff1681526020018781526020013481526020018681526020018581526020018481526020016000151581526020016000151581525060008084815260200190815260200160002060008201518160000160006101000a81548173ffffffffffffffffffffffffffffffffffffffff021916908373ffffffffffffffffffffffffffffffffffffffff16021790555060208201518160010160006101000a81548173ffffffffffffffffffffffffffffffffffffffff021916908373ffffffffffffffffffffffffffffffffffffffff16021790555060408201518160020155606082015181600301556080820151816004015560a0820151816005015560c0820151816006015560e08201518160070160006101000a81548160ff0219169083151502179055506101008201518160070160016101000a81548160ff0219169083151502179055509050508673ffffffffffffffffffffffffffffffffffffffff163373ffffffffffffffffffffffffffffffffffffffff16837f4998d0afe630024d6e3029b2daa59305083579d05e260544fcca5964b27ed05289348a8a8a604051808681526020018581526020018481526020018381526020018281526020019550505050505060405180910390a45095945050505050565b600081610c5b81611191565b610ccd576040517f08c379a00000000000000000000000000000000000000000000000000000000081526004018080602001828103825260198152602001807f636f6e7472616374496420646f6573206e6f742065786973740000000000000081525060200191505060405180910390fd5b823373ffffffffffffffffffffffffffffffffffffffff1660008083815260200190815260200160002060000160009054906101000a900473ffffffffffffffffffffffffffffffffffffffff1673ffffffffffffffffffffffffffffffffffffffff1614610da4576040517f08c379a00000000000000000000000000000000000000000000000000000000081526004018080602001828103825260168152602001807f726566756e6461626c653a206e6f742073656e6465720000000000000000000081525060200191505060405180910390fd5b6000151560008083815260200190815260200160002060070160019054906101000a900460ff16151514610e40576040517f08c379a000000000000000000000000000000000000000000000000000000000815260040180806020018281038252601c8152602001807f726566756e6461626c653a20616c726561647920726566756e6465640000000081525060200191505060405180910390fd5b6000151560008083815260200190815260200160002060070160009054906101000a900460ff16151514610edc576040517f08c379a000000000000000000000000000000000000000000000000000000000815260040180806020018281038252601d8152602001807f726566756e6461626c653a20616c72656164792077697468647261776e00000081525060200191505060405180910390fd5b42600080838152602001908152602001600020600601541115610f4a576040517f08c379a0000000000000000000000000000000000000000000000000000000008152600401808060200182810382526023815260200180611a676023913960400191505060405180910390fd5b6000806000868152602001908152602001600020905060018160070160016101000a81548160ff0219169083151502179055508060000160009054906101000a900473ffffffffffffffffffffffffffffffffffffffff1673ffffffffffffffffffffffffffffffffffffffff166108fc82600301549081150290604051600060405180830381858888f19350505050158015610feb573d6000803e3d6000fd5b50847f989b3a845197c9aec15f8982bbb30b5da714050e662a7a287bb1a94c81e2e70e60405160405180910390a260019350505050919050565b7f483ada7726a3c4655da4fbfc0e1108a8fd17b448a68554199c47d08ffb10d4b881565b600081565b60008060008060008060008060008015156110688b611191565b151514156110a9576000806000801b600080600080600080889850879750859550849450839350829250985098509850985098509850985098509850611160565b60008060008c815260200190815260200160002090508060000160009054906101000a900473ffffffffffffffffffffffffffffffffffffffff168160010160009054906101000a900473ffffffffffffffffffffffffffffffffffffffff16826002015483600301548460040154856005015486600601548760070160009054906101000a900460ff168860070160019054906101000a900460ff16889850879750995099509950995099509950995099509950505b9193959799909294969850565b7ffffffffffffffffffffffffffffffffffffffffffffffffffffffffefffffc2f81565b60008073ffffffffffffffffffffffffffffffffffffffff1660008084815260200190815260200160002060000160009054906101000a900473ffffffffffffffffffffffffffffffffffffffff1673ffffffffffffffffffffffffffffffffffffffff1614159050919050565b60008060008060006112168a8a8a60018b8b611239565b925092509250611228838383896112de565b945094505050509550959350505050565b600080600080891415611254578787879250925092506112d2565b6000899050600080905060008090506000600190505b600084146112c457600060018516146112995761128c8383838f8f8f8e611339565b8093508194508295505050505b600284816112a357fe5b0493506112b38c8c8c8c8c61180a565b809c50819d50829e5050505061126a565b828282965096509650505050505b96509650969350505050565b60008060006112ed8585611929565b9050600084806112f957fe5b82830990506000858061130857fe5b828a0990506000868061131757fe5b878061131f57fe5b8486098a0990508181955095505050505094509492505050565b6000806000808a14801561134d5750600089145b15611360578686869250925092506117fd565b6000871480156113705750600086145b15611383578989899250925092506117fd565b61138b611a21565b848061139357fe5b898a09816000600481106113a357fe5b60200201818152505084806113b457fe5b816000600481106113c157fe5b60200201518a09816001600481106113d557fe5b60200201818152505084806113e657fe5b868709816002600481106113f657fe5b602002018181525050848061140757fe5b8160026004811061141457fe5b602002015187098160036004811061142857fe5b6020020181815250506040518060800160405280868061144457fe5b8360026004811061145157fe5b60200201518e098152602001868061146557fe5b8360036004811061147257fe5b60200201518d098152602001868061148657fe5b8360006004811061149357fe5b60200201518b09815260200186806114a757fe5b836001600481106114b457fe5b60200201518a098152509050806002600481106114cd57fe5b6020020151816000600481106114df57fe5b60200201511415806115135750806003600481106114f957fe5b60200201518160016004811061150b57fe5b602002015114155b611585576040517f08c379a000000000000000000000000000000000000000000000000000000000815260040180806020018281038252601e8152602001807f557365206a6163446f75626c652066756e6374696f6e20696e7374656164000081525060200191505060405180910390fd5b61158d611a21565b858061159557fe5b826000600481106115a257fe5b60200201518703836002600481106115b657fe5b602002015108816000600481106115c957fe5b60200201818152505085806115da57fe5b826001600481106115e757fe5b60200201518703836003600481106115fb57fe5b6020020151088160016004811061160e57fe5b602002018181525050858061161f57fe5b8160006004811061162c57fe5b60200201518260006004811061163e57fe5b6020020151098160026004811061165157fe5b602002018181525050858061166257fe5b8160006004811061166f57fe5b60200201518260026004811061168157fe5b6020020151098160036004811061169457fe5b602002018181525050600086806116a757fe5b826003600481106116b457fe5b6020020151880388806116c357fe5b846001600481106116d057fe5b6020020151856001600481106116e257fe5b60200201510908905086806116f357fe5b87806116fb57fe5b888061170357fe5b8460026004811061171057fe5b60200201518660006004811061172257fe5b6020020151096002098803820890506000878061173b57fe5b888061174357fe5b838a038a8061174e57fe5b8660026004811061175b57fe5b60200201518860006004811061176d57fe5b602002015109088460016004811061178157fe5b6020020151099050878061179157fe5b888061179957fe5b846003600481106117a657fe5b6020020151866001600481106117b857fe5b602002015109890382089050600088806117ce57fe5b89806117d657fe5b8b8f09856000600481106117e657fe5b602002015109905082828297509750975050505050505b9750975097945050505050565b6000806000808614156118255787878792509250925061191e565b6000848061182f57fe5b898a0990506000858061183e57fe5b898a0990506000868061184d57fe5b898a0990506000878061185c57fe5b888061186457fe5b848e0960040990506000888061187657fe5b898061187e57fe5b8a8061188657fe5b8586098c098a8061189357fe5b8760030908905088806118a257fe5b89806118aa57fe5b8384088a038a806118b757fe5b83840908945088806118c557fe5b89806118cd57fe5b8a806118d557fe5b8687096008098a038a806118e557fe5b8b806118ed57fe5b888d038608840908935088806118ff57fe5b898061190757fe5b8c8e09600209925084848497509750975050505050505b955095509592505050565b600080831415801561193b5750818314155b8015611948575060008214155b6119ba576040517f08c379a000000000000000000000000000000000000000000000000000000000815260040180806020018281038252600e8152602001807f496e76616c6964206e756d62657200000000000000000000000000000000000081525060200191505060405180910390fd5b6000809050600060019050600084905060005b60008714611a14578682816119de57fe5b0490508286806119ea57fe5b87806119f257fe5b85840988038608809450819550505086878202830380985081935050506119cd565b8394505050505092915050565b604051806080016040528060049060208202803883398082019150509050509056fe74696d656c6f636b2074696d65206d75737420626520696e2074686520667574757265726566756e6461626c653a2074696d656c6f636b206e6f742079657420706173736564776974686472617761626c653a2074696d656c6f636b2074696d65206d75737420626520696e2074686520667574757265a265627a7a7231582098102398f7db39cab9c5913289873ca251c04f2cb82e78aa5dfa2ac6222010d264736f6c63430005100032",
  "source": "// SPDX-License-Identifier: MIT\n\npragma solidity ^0.5.0;\n\nimport \"./EllipticCurve.sol\";\n\n/**\n * @title Hashed Timelock Contracts (HTLCs) on Ethereum ETH.\n *\n * This contract provides a way to create and keep HTLCs for ETH.\n *\n * See HashedTimelockERC20.sol for a contract that provides the same functions\n * for ERC20 tokens.\n *\n * Protocol:\n *\n *  1) newContract(receiver, sk1, sk1y, timelock) - a sender calls this to create\n *      a new HTLC and gets back a 32 byte contract id\n *  2) withdraw(contractId, sk2) - once the receiver knows sk2 \n *      they can claim the ETH with this function\n *  3) refund() - after timelock has expired and if the receiver did not\n *      withdraw funds the sender / creator of the HTLC can get their ETH\n *      back with this function.\n */\ncontract FairTradeExtImproved {\n\n    event LogHTLCNew(\n        bytes32 indexed contractId,\n        address indexed sender,\n        address indexed receiver,\n        bytes32 datahash,\n        uint amount,\n        uint256 sk1x,\n        uint256 sk1y,\n        uint timelock\n    );\n    event LogHTLCWithdraw(bytes32 indexed contractId);\n    event LogHTLCRefund(bytes32 indexed contractId);\n\n    struct LockContract {\n        address payable sender;\n        address payable receiver;\n        bytes32 datahash;\n        uint amount;\n        uint256 sk1x;\n        uint256 sk1y; //the pre-set results calculated by the buyer(sender) for future checking\n        uint timelock; // UNIX timestamp seconds - locked UNTIL this time\n        bool withdrawn;\n        bool refunded;\n    }\n    \n    uint256 public constant GX = 0x79BE667EF9DCBBAC55A06295CE870B07029BFCDB2DCE28D959F2815B16F81798;\n    uint256 public constant GY = 0x483ADA7726A3C4655DA4FBFC0E1108A8FD17B448A68554199C47D08FFB10D4B8;\n    uint256 public constant AA = 0;\n    uint256 public constant PP = 0xFFFFFFFFFFFFFFFFFFFFFFFFFFFFFFFFFFFFFFFFFFFFFFFFFFFFFFFEFFFFFC2F;\n    //uint256 public constant sk1x = 112711660439710606056748659173929673102114977341539408544630613555209775888121;\n    //uint256 public constant sk1y = 25583027980570883691656905877401976406448868254816295069919888960541586679410;\n\n    modifier fundsSent() {\n        require(msg.value > 0, \"msg.value must be > 0\");\n        _;\n    }\n    modifier futureTimelock(uint _time) {\n        // only requirement is the timelock time is after the last blocktime (now).\n        // probably want something a bit further in the future then this.\n        // but this is still a useful sanity check:\n        require(_time > now, \"timelock time must be in the future\");\n        _;\n    }\n    modifier contractExists(bytes32 _contractId) {\n        require(haveContract(_contractId), \"contractId does not exist\");\n        _;\n    }\n    modifier sklockMatches(bytes32 _contractId, uint256 sk2) {\n        uint256 sk2x;\n        uint256 sk2y;\n        (sk2x, sk2y) = EllipticCurve.ecMul(sk2,GX,GY,AA,PP);                  //sk2*G(X,Y) \n        require(contracts[_contractId].sk1x == sk2x, \"sk2 does not match\");\n        require(contracts[_contractId].sk1y == sk2y, \"sk2 does not match\");\n        _;\n    }\n    modifier withdrawable(bytes32 _contractId) {\n        require(contracts[_contractId].receiver == msg.sender, \"withdrawable: not receiver\");\n        require(contracts[_contractId].withdrawn == false, \"withdrawable: already withdrawn\");\n        require(contracts[_contractId].timelock > now, \"withdrawable: timelock time must be in the future\");\n        _;\n    }\n    modifier refundable(bytes32 _contractId) {\n        require(contracts[_contractId].sender == msg.sender, \"refundable: not sender\");\n        require(contracts[_contractId].refunded == false, \"refundable: already refunded\");\n        require(contracts[_contractId].withdrawn == false, \"refundable: already withdrawn\");\n        require(contracts[_contractId].timelock <= now, \"refundable: timelock not yet passed\");\n        _;\n    }\n\n    mapping (bytes32 => LockContract) contracts;\n\n    /**\n     * @dev Sender sets up a new hash time lock contract depositing the ETH and\n     * providing the reciever lock terms.\n     *\n     * @param _receiver Receiver of the ETH.\n     * @param _sk1x, _sk1y The calculated results based on sk1 which was given during the negotiation phase.\n     * @param _timelock UNIX epoch seconds time that the lock expires at.\n     *                  Refunds can be made after this time.\n     * @return contractId Id of the new HTLC. This is needed for subsequent\n     *                    calls.\n     */\n    function newContract(address payable _receiver, bytes32 _datahash, uint256 _sk1x, uint256 _sk1y, uint _timelock)\n        external\n        payable\n        fundsSent\n        futureTimelock(_timelock)\n        returns (bytes32 contractId)\n    {\n        contractId = keccak256(\n            abi.encodePacked(\n                msg.sender,\n                _receiver,\n                _datahash,\n                msg.value,\n                _sk1x,\n                _sk1y,\n                _timelock\n            )\n        );\n\n        // Reject if a contract already exists with the same parameters. The\n        // sender must change one of these parameters to create a new distinct\n        // contract.\n        if (haveContract(contractId))\n            revert(\"Contract already exists\");\n\n        contracts[contractId] = LockContract(\n            msg.sender,\n            _receiver,\n            _datahash,\n            msg.value,\n            _sk1x,\n            _sk1y,\n            _timelock,\n            false,\n            false\n        );\n\n        emit LogHTLCNew(\n            contractId,\n            msg.sender,\n            _receiver,\n            _datahash,\n            msg.value,\n            _sk1x,\n            _sk1y,\n            _timelock\n        );\n    }\n\n    /**\n     * @dev Called by the receiver once they know sk2.\n     * This will transfer the locked funds to their address.\n     *\n     * @param _contractId Id of the HTLC.\n     * @param _sk2 G(X,Y)**_sk2 should equal to (sk1x,sk1y).\n     * @return bool true on success\n     */\n    function withdraw(bytes32 _contractId, uint256 _sk2)\n        external\n        contractExists(_contractId)\n        sklockMatches(_contractId, _sk2)\n        withdrawable(_contractId)\n        returns (bool)\n    {\n        LockContract storage c = contracts[_contractId];\n        //c.sk2 = _preimage;\n        c.withdrawn = true;\n        c.receiver.transfer(c.amount);\n        emit LogHTLCWithdraw(_contractId);\n        return true;\n    }\n\n    /**\n     * @dev Called by the sender if there was no withdraw AND the time lock has\n     * expired. This will refund the contract amount.\n     *\n     * @param _contractId Id of HTLC to refund from.\n     * @return bool true on success\n     */\n    function refund(bytes32 _contractId)\n        external\n        contractExists(_contractId)\n        refundable(_contractId)\n        returns (bool)\n    {\n        LockContract storage c = contracts[_contractId];\n        c.refunded = true;\n        c.sender.transfer(c.amount);\n        emit LogHTLCRefund(_contractId);\n        return true;\n    }\n\n    /**\n     * @dev Get contract details.\n     * @param _contractId HTLC contract id\n     * return All parameters in struct LockContract for _contractId HTLC\n     */\n    function getContract(bytes32 _contractId) \n    public \n    view \n    returns (\n        address sender,\n        address receiver,\n        bytes32 datahash,\n        uint amount,\n        uint256 sk1x,\n        uint256 sk1y,\n        uint timelock,\n        bool withdrawn,\n        bool refunded)\n    {\n        if (haveContract(_contractId) == false)\n            return (address(0), address(0), bytes32(0), 0, 0, 0, 0, false, false);\n        LockContract storage c = contracts[_contractId];\n        return (\n            c.sender,\n            c.receiver,\n            c.datahash,\n            c.amount,\n            c.sk1x,\n            c.sk1y,\n            c.timelock,\n            c.withdrawn,\n            c.refunded\n        );\n    }\n\n    /**\n     * @dev Is there a contract with id _contractId.\n     * @param _contractId Id into contracts mapping.\n     */\n    function haveContract(bytes32 _contractId)\n        internal\n        view\n        returns (bool exists)\n    {\n        exists = (contracts[_contractId].sender != address(0));\n    }\n\n}",
  "sourcePath": "/Users/dougchenli/truffle/FairTrade/contracts/FairTradeExtImproved.sol",
  "compiler": {
    "name": "solc",
    "version": "0.5.16+commit.9c3226ce.Emscripten.clang"
  },
  "schemaVersion": "3.4.1",
  "updatedAt": "2023-10-03T18:27:36.735Z",
  "networkType": "ethereum",
  "devdoc": {
    "methods": {
      "getContract(bytes32)": {
        "details": "Get contract details.",
        "params": {
          "_contractId": "HTLC contract id return All parameters in struct LockContract for _contractId HTLC"
        }
      },
      "newContract(address,bytes32,uint256,uint256,uint256)": {
        "details": "Sender sets up a new hash time lock contract depositing the ETH and providing the reciever lock terms.",
        "params": {
          "_receiver": "Receiver of the ETH.",
          "_sk1x": ", _sk1y The calculated results based on sk1 which was given during the negotiation phase.",
          "_timelock": "UNIX epoch seconds time that the lock expires at.                 Refunds can be made after this time."
        },
        "return": "contractId Id of the new HTLC. This is needed for subsequent                   calls."
      },
      "refund(bytes32)": {
        "details": "Called by the sender if there was no withdraw AND the time lock has expired. This will refund the contract amount.",
        "params": {
          "_contractId": "Id of HTLC to refund from."
        },
        "return": "bool true on success"
      },
      "withdraw(bytes32,uint256)": {
        "details": "Called by the receiver once they know sk2. This will transfer the locked funds to their address.",
        "params": {
          "_contractId": "Id of the HTLC.",
          "_sk2": "G(X,Y)**_sk2 should equal to (sk1x,sk1y)."
        },
        "return": "bool true on success"
      }
    },
    "title": "Hashed Timelock Contracts (HTLCs) on Ethereum ETH. * This contract provides a way to create and keep HTLCs for ETH. * See HashedTimelockERC20.sol for a contract that provides the same functions for ERC20 tokens. * Protocol: *  1) newContract(receiver, sk1, sk1y, timelock) - a sender calls this to create     a new HTLC and gets back a 32 byte contract id 2) withdraw(contractId, sk2) - once the receiver knows sk2      they can claim the ETH with this function 3) refund() - after timelock has expired and if the receiver did not     withdraw funds the sender / creator of the HTLC can get their ETH     back with this function."
  },
  "userdoc": {
    "methods": {}
  }
}