{
  "contractName": "FairTradeExt",
  "abi": [
    {
      "anonymous": false,
      "inputs": [
        {
          "indexed": true,
          "internalType": "bytes32",
          "name": "contractId",
          "type": "bytes32"
        },
        {
          "indexed": true,
          "internalType": "address",
          "name": "sender",
          "type": "address"
        },
        {
          "indexed": true,
          "internalType": "address",
          "name": "receiver",
          "type": "address"
        },
        {
          "indexed": false,
          "internalType": "uint256",
          "name": "amount",
          "type": "uint256"
        },
        {
          "indexed": false,
          "internalType": "uint256",
          "name": "sk1x",
          "type": "uint256"
        },
        {
          "indexed": false,
          "internalType": "uint256",
          "name": "sk1y",
          "type": "uint256"
        },
        {
          "indexed": false,
          "internalType": "uint256",
          "name": "timelock",
          "type": "uint256"
        }
      ],
      "name": "LogHTLCNew",
      "type": "event"
    },
    {
      "anonymous": false,
      "inputs": [
        {
          "indexed": true,
          "internalType": "bytes32",
          "name": "contractId",
          "type": "bytes32"
        }
      ],
      "name": "LogHTLCRefund",
      "type": "event"
    },
    {
      "anonymous": false,
      "inputs": [
        {
          "indexed": true,
          "internalType": "bytes32",
          "name": "contractId",
          "type": "bytes32"
        }
      ],
      "name": "LogHTLCWithdraw",
      "type": "event"
    },
    {
      "constant": true,
      "inputs": [],
      "name": "AA",
      "outputs": [
        {
          "internalType": "uint256",
          "name": "",
          "type": "uint256"
        }
      ],
      "payable": false,
      "stateMutability": "view",
      "type": "function"
    },
    {
      "constant": true,
      "inputs": [],
      "name": "GX",
      "outputs": [
        {
          "internalType": "uint256",
          "name": "",
          "type": "uint256"
        }
      ],
      "payable": false,
      "stateMutability": "view",
      "type": "function"
    },
    {
      "constant": true,
      "inputs": [],
      "name": "GY",
      "outputs": [
        {
          "internalType": "uint256",
          "name": "",
          "type": "uint256"
        }
      ],
      "payable": false,
      "stateMutability": "view",
      "type": "function"
    },
    {
      "constant": true,
      "inputs": [],
      "name": "PP",
      "outputs": [
        {
          "internalType": "uint256",
          "name": "",
          "type": "uint256"
        }
      ],
      "payable": false,
      "stateMutability": "view",
      "type": "function"
    },
    {
      "constant": false,
      "inputs": [
        {
          "internalType": "address payable",
          "name": "_receiver",
          "type": "address"
        },
        {
          "internalType": "uint256",
          "name": "_sk1x",
          "type": "uint256"
        },
        {
          "internalType": "uint256",
          "name": "_sk1y",
          "type": "uint256"
        },
        {
          "internalType": "uint256",
          "name": "_timelock",
          "type": "uint256"
        }
      ],
      "name": "newContract",
      "outputs": [
        {
          "internalType": "bytes32",
          "name": "contractId",
          "type": "bytes32"
        }
      ],
      "payable": true,
      "stateMutability": "payable",
      "type": "function"
    },
    {
      "constant": false,
      "inputs": [
        {
          "internalType": "bytes32",
          "name": "_contractId",
          "type": "bytes32"
        },
        {
          "internalType": "uint256",
          "name": "_sk2",
          "type": "uint256"
        }
      ],
      "name": "withdraw",
      "outputs": [
        {
          "internalType": "bool",
          "name": "",
          "type": "bool"
        }
      ],
      "payable": false,
      "stateMutability": "nonpayable",
      "type": "function"
    },
    {
      "constant": false,
      "inputs": [
        {
          "internalType": "bytes32",
          "name": "_contractId",
          "type": "bytes32"
        }
      ],
      "name": "refund",
      "outputs": [
        {
          "internalType": "bool",
          "name": "",
          "type": "bool"
        }
      ],
      "payable": false,
      "stateMutability": "nonpayable",
      "type": "function"
    },
    {
      "constant": true,
      "inputs": [
        {
          "internalType": "bytes32",
          "name": "_contractId",
          "type": "bytes32"
        }
      ],
      "name": "getContract",
      "outputs": [
        {
          "internalType": "address",
          "name": "sender",
          "type": "address"
        },
        {
          "internalType": "address",
          "name": "receiver",
          "type": "address"
        },
        {
          "internalType": "uint256",
          "name": "amount",
          "type": "uint256"
        },
        {
          "internalType": "uint256",
          "name": "sk1x",
          "type": "uint256"
        },
        {
          "internalType": "uint256",
          "name": "sk1y",
          "type": "uint256"
        },
        {
          "internalType": "uint256",
          "name": "timelock",
          "type": "uint256"
        },
        {
          "internalType": "bool",
          "name": "withdrawn",
          "type": "bool"
        },
        {
          "internalType": "bool",
          "name": "refunded",
          "type": "bool"
        }
      ],
      "payable": false,
      "stateMutability": "view",
      "type": "function"
    }
  ],
  "bytecode": "0x608060405234801561001057600080fd5b50611aac806100206000396000f3fe60806040526004361061007b5760003560e01c8063997da8d41161004e578063997da8d414610186578063bc47a074146101b1578063e16c7d9814610227578063eeeac01e146103075761007b565b806303a507be14610080578063040cf020146100ab5780637249fbb6146101085780637a308a4c1461015b575b600080fd5b34801561008c57600080fd5b50610095610332565b6040518082815260200191505060405180910390f35b3480156100b757600080fd5b506100ee600480360360408110156100ce57600080fd5b810190808035906020019092919080359060200190929190505050610356565b604051808215151515815260200191505060405180910390f35b34801561011457600080fd5b506101416004803603602081101561012b57600080fd5b8101908080359060200190929190505050610823565b604051808215151515815260200191505060405180910390f35b34801561016757600080fd5b50610170610bf9565b6040518082815260200191505060405180910390f35b34801561019257600080fd5b5061019b610c1d565b6040518082815260200191505060405180910390f35b610211600480360360808110156101c757600080fd5b81019080803573ffffffffffffffffffffffffffffffffffffffff169060200190929190803590602001909291908035906020019092919080359060200190929190505050610c22565b6040518082815260200191505060405180910390f35b34801561023357600080fd5b506102606004803603602081101561024a57600080fd5b810190808035906020019092919050505061101b565b604051808973ffffffffffffffffffffffffffffffffffffffff1673ffffffffffffffffffffffffffffffffffffffff1681526020018873ffffffffffffffffffffffffffffffffffffffff1673ffffffffffffffffffffffffffffffffffffffff16815260200187815260200186815260200185815260200184815260200183151515158152602001821515151581526020019850505050505050505060405180910390f35b34801561031357600080fd5b5061031c61112a565b6040518082815260200191505060405180910390f35b7f79be667ef9dcbbac55a06295ce870b07029bfcdb2dce28d959f2815b16f8179881565b6000826103628161114e565b6103d4576040517f08c379a00000000000000000000000000000000000000000000000000000000081526004018080602001828103825260198152602001807f636f6e7472616374496420646f6573206e6f742065786973740000000000000081525060200191505060405180910390fd5b8383600080610447837f79be667ef9dcbbac55a06295ce870b07029bfcdb2dce28d959f2815b16f817987f483ada7726a3c4655da4fbfc0e1108a8fd17b448a68554199c47d08ffb10d4b860007ffffffffffffffffffffffffffffffffffffffffffffffffffffffffefffffc2f6111bc565b80925081935050508160008086815260200190815260200160002060030154146104d9576040517f08c379a00000000000000000000000000000000000000000000000000000000081526004018080602001828103825260128152602001807f736b3220646f6573206e6f74206d61746368000000000000000000000000000081525060200191505060405180910390fd5b806000808681526020019081526020016000206004015414610563576040517f08c379a00000000000000000000000000000000000000000000000000000000081526004018080602001828103825260128152602001807f736b3220646f6573206e6f74206d61746368000000000000000000000000000081525060200191505060405180910390fd5b873373ffffffffffffffffffffffffffffffffffffffff1660008083815260200190815260200160002060010160009054906101000a900473ffffffffffffffffffffffffffffffffffffffff1673ffffffffffffffffffffffffffffffffffffffff161461063a576040517f08c379a000000000000000000000000000000000000000000000000000000000815260040180806020018281038252601a8152602001807f776974686472617761626c653a206e6f7420726563656976657200000000000081525060200191505060405180910390fd5b6000151560008083815260200190815260200160002060060160009054906101000a900460ff161515146106d6576040517f08c379a000000000000000000000000000000000000000000000000000000000815260040180806020018281038252601f8152602001807f776974686472617761626c653a20616c72656164792077697468647261776e0081525060200191505060405180910390fd5b426000808381526020019081526020016000206005015411610743576040517f08c379a0000000000000000000000000000000000000000000000000000000008152600401808060200182810382526031815260200180611a476031913960400191505060405180910390fd5b60008060008b8152602001908152602001600020905060018160060160006101000a81548160ff0219169083151502179055508060010160009054906101000a900473ffffffffffffffffffffffffffffffffffffffff1673ffffffffffffffffffffffffffffffffffffffff166108fc82600201549081150290604051600060405180830381858888f193505050501580156107e4573d6000803e3d6000fd5b50897fd6fd4c8e45bf0c70693141c7ce46451b6a6a28ac8386fca2ba914044e0e2391660405160405180910390a2600197505050505050505092915050565b60008161082f8161114e565b6108a1576040517f08c379a00000000000000000000000000000000000000000000000000000000081526004018080602001828103825260198152602001807f636f6e7472616374496420646f6573206e6f742065786973740000000000000081525060200191505060405180910390fd5b823373ffffffffffffffffffffffffffffffffffffffff1660008083815260200190815260200160002060000160009054906101000a900473ffffffffffffffffffffffffffffffffffffffff1673ffffffffffffffffffffffffffffffffffffffff1614610978576040517f08c379a00000000000000000000000000000000000000000000000000000000081526004018080602001828103825260168152602001807f726566756e6461626c653a206e6f742073656e6465720000000000000000000081525060200191505060405180910390fd5b6000151560008083815260200190815260200160002060060160019054906101000a900460ff16151514610a14576040517f08c379a000000000000000000000000000000000000000000000000000000000815260040180806020018281038252601c8152602001807f726566756e6461626c653a20616c726561647920726566756e6465640000000081525060200191505060405180910390fd5b6000151560008083815260200190815260200160002060060160009054906101000a900460ff16151514610ab0576040517f08c379a000000000000000000000000000000000000000000000000000000000815260040180806020018281038252601d8152602001807f726566756e6461626c653a20616c72656164792077697468647261776e00000081525060200191505060405180910390fd5b42600080838152602001908152602001600020600501541115610b1e576040517f08c379a0000000000000000000000000000000000000000000000000000000008152600401808060200182810382526023815260200180611a246023913960400191505060405180910390fd5b6000806000868152602001908152602001600020905060018160060160016101000a81548160ff0219169083151502179055508060000160009054906101000a900473ffffffffffffffffffffffffffffffffffffffff1673ffffffffffffffffffffffffffffffffffffffff166108fc82600201549081150290604051600060405180830381858888f19350505050158015610bbf573d6000803e3d6000fd5b50847f989b3a845197c9aec15f8982bbb30b5da714050e662a7a287bb1a94c81e2e70e60405160405180910390a260019350505050919050565b7f483ada7726a3c4655da4fbfc0e1108a8fd17b448a68554199c47d08ffb10d4b881565b600081565b6000803411610c99576040517f08c379a00000000000000000000000000000000000000000000000000000000081526004018080602001828103825260158152602001807f6d73672e76616c7565206d757374206265203e2030000000000000000000000081525060200191505060405180910390fd5b81428111610cf2576040517f08c379a0000000000000000000000000000000000000000000000000000000008152600401808060200182810382526023815260200180611a016023913960400191505060405180910390fd5b338634878787604051602001808773ffffffffffffffffffffffffffffffffffffffff1673ffffffffffffffffffffffffffffffffffffffff1660601b81526014018673ffffffffffffffffffffffffffffffffffffffff1673ffffffffffffffffffffffffffffffffffffffff1660601b81526014018581526020018481526020018381526020018281526020019650505050505050604051602081830303815290604052805190602001209150610daa8261114e565b15610e1d576040517f08c379a00000000000000000000000000000000000000000000000000000000081526004018080602001828103825260178152602001807f436f6e747261637420616c72656164792065786973747300000000000000000081525060200191505060405180910390fd5b6040518061010001604052803373ffffffffffffffffffffffffffffffffffffffff1681526020018773ffffffffffffffffffffffffffffffffffffffff1681526020013481526020018681526020018581526020018481526020016000151581526020016000151581525060008084815260200190815260200160002060008201518160000160006101000a81548173ffffffffffffffffffffffffffffffffffffffff021916908373ffffffffffffffffffffffffffffffffffffffff16021790555060208201518160010160006101000a81548173ffffffffffffffffffffffffffffffffffffffff021916908373ffffffffffffffffffffffffffffffffffffffff16021790555060408201518160020155606082015181600301556080820151816004015560a0820151816005015560c08201518160060160006101000a81548160ff02191690831515021790555060e08201518160060160016101000a81548160ff0219169083151502179055509050508573ffffffffffffffffffffffffffffffffffffffff163373ffffffffffffffffffffffffffffffffffffffff16837f20ca0f758de8273c1a0c4666500d0fd8003b54b49a00b83e675d577f8a8a790a348989896040518085815260200184815260200183815260200182815260200194505050505060405180910390a450949350505050565b600080600080600080600080600015156110348a61114e565b1515141561106f576000806000806000806000808797508696508595508494508393508292509750975097509750975097509750975061111f565b60008060008b815260200190815260200160002090508060000160009054906101000a900473ffffffffffffffffffffffffffffffffffffffff168160010160009054906101000a900473ffffffffffffffffffffffffffffffffffffffff1682600201548360030154846004015485600501548660060160009054906101000a900460ff168760060160019054906101000a900460ff1687975086965098509850985098509850985098509850505b919395975091939597565b7ffffffffffffffffffffffffffffffffffffffffffffffffffffffffefffffc2f81565b60008073ffffffffffffffffffffffffffffffffffffffff1660008084815260200190815260200160002060000160009054906101000a900473ffffffffffffffffffffffffffffffffffffffff1673ffffffffffffffffffffffffffffffffffffffff1614159050919050565b60008060008060006111d38a8a8a60018b8b6111f6565b9250925092506111e58383838961129b565b945094505050509550959350505050565b6000806000808914156112115787878792509250925061128f565b6000899050600080905060008090506000600190505b600084146112815760006001851614611256576112498383838f8f8f8e6112f6565b8093508194508295505050505b6002848161126057fe5b0493506112708c8c8c8c8c6117c7565b809c50819d50829e50505050611227565b828282965096509650505050505b96509650969350505050565b60008060006112aa85856118e6565b9050600084806112b657fe5b8283099050600085806112c557fe5b828a099050600086806112d457fe5b87806112dc57fe5b8486098a0990508181955095505050505094509492505050565b6000806000808a14801561130a5750600089145b1561131d578686869250925092506117ba565b60008714801561132d5750600086145b15611340578989899250925092506117ba565b6113486119de565b848061135057fe5b898a098160006004811061136057fe5b602002018181525050848061137157fe5b8160006004811061137e57fe5b60200201518a098160016004811061139257fe5b60200201818152505084806113a357fe5b868709816002600481106113b357fe5b60200201818152505084806113c457fe5b816002600481106113d157fe5b60200201518709816003600481106113e557fe5b6020020181815250506040518060800160405280868061140157fe5b8360026004811061140e57fe5b60200201518e098152602001868061142257fe5b8360036004811061142f57fe5b60200201518d098152602001868061144357fe5b8360006004811061145057fe5b60200201518b098152602001868061146457fe5b8360016004811061147157fe5b60200201518a0981525090508060026004811061148a57fe5b60200201518160006004811061149c57fe5b60200201511415806114d05750806003600481106114b657fe5b6020020151816001600481106114c857fe5b602002015114155b611542576040517f08c379a000000000000000000000000000000000000000000000000000000000815260040180806020018281038252601e8152602001807f557365206a6163446f75626c652066756e6374696f6e20696e7374656164000081525060200191505060405180910390fd5b61154a6119de565b858061155257fe5b8260006004811061155f57fe5b602002015187038360026004811061157357fe5b6020020151088160006004811061158657fe5b602002018181525050858061159757fe5b826001600481106115a457fe5b60200201518703836003600481106115b857fe5b602002015108816001600481106115cb57fe5b60200201818152505085806115dc57fe5b816000600481106115e957fe5b6020020151826000600481106115fb57fe5b6020020151098160026004811061160e57fe5b602002018181525050858061161f57fe5b8160006004811061162c57fe5b60200201518260026004811061163e57fe5b6020020151098160036004811061165157fe5b6020020181815250506000868061166457fe5b8260036004811061167157fe5b60200201518803888061168057fe5b8460016004811061168d57fe5b60200201518560016004811061169f57fe5b60200201510908905086806116b057fe5b87806116b857fe5b88806116c057fe5b846002600481106116cd57fe5b6020020151866000600481106116df57fe5b602002015109600209880382089050600087806116f857fe5b888061170057fe5b838a038a8061170b57fe5b8660026004811061171857fe5b60200201518860006004811061172a57fe5b602002015109088460016004811061173e57fe5b6020020151099050878061174e57fe5b888061175657fe5b8460036004811061176357fe5b60200201518660016004811061177557fe5b6020020151098903820890506000888061178b57fe5b898061179357fe5b8b8f09856000600481106117a357fe5b602002015109905082828297509750975050505050505b9750975097945050505050565b6000806000808614156117e2578787879250925092506118db565b600084806117ec57fe5b898a099050600085806117fb57fe5b898a0990506000868061180a57fe5b898a0990506000878061181957fe5b888061182157fe5b848e0960040990506000888061183357fe5b898061183b57fe5b8a8061184357fe5b8586098c098a8061185057fe5b87600309089050888061185f57fe5b898061186757fe5b8384088a038a8061187457fe5b838409089450888061188257fe5b898061188a57fe5b8a8061189257fe5b8687096008098a038a806118a257fe5b8b806118aa57fe5b888d038608840908935088806118bc57fe5b89806118c457fe5b8c8e09600209925084848497509750975050505050505b955095509592505050565b60008083141580156118f85750818314155b8015611905575060008214155b611977576040517f08c379a000000000000000000000000000000000000000000000000000000000815260040180806020018281038252600e8152602001807f496e76616c6964206e756d62657200000000000000000000000000000000000081525060200191505060405180910390fd5b6000809050600060019050600084905060005b600087146119d15786828161199b57fe5b0490508286806119a757fe5b87806119af57fe5b858409880386088094508195505050868782028303809850819350505061198a565b8394505050505092915050565b604051806080016040528060049060208202803883398082019150509050509056fe74696d656c6f636b2074696d65206d75737420626520696e2074686520667574757265726566756e6461626c653a2074696d656c6f636b206e6f742079657420706173736564776974686472617761626c653a2074696d656c6f636b2074696d65206d75737420626520696e2074686520667574757265a265627a7a72315820d390e461cb39c12dafb29a3493de36fe6cb67ec5706b14fb3d5fd7a0ac22dee964736f6c63430005100032",
  "source": "// SPDX-License-Identifier: MIT\n\npragma solidity ^0.5.0;\n\nimport \"./EllipticCurve.sol\";\n\n/**\n * @title Hashed Timelock Contracts (HTLCs) on Ethereum ETH.\n *\n * This contract provides a way to create and keep HTLCs for ETH.\n *\n * See FairTradeExtERC20.sol for a contract that provides the same functions\n * for ERC20 tokens.\n *\n * Protocol:\n *\n *  1) newContract(receiver, sk1, sk1y, timelock) - a sender calls this to create\n *      a new HTLC and gets back a 32 byte contract id\n *  2) withdraw(contractId, sk2) - once the receiver knows sk2 \n *      they can claim the ETH with this function\n *  3) refund() - after timelock has expired and if the receiver did not\n *      withdraw funds the sender / creator of the HTLC can get their ETH\n *      back with this function.\n */\ncontract FairTradeExt {\n\n    event LogHTLCNew(\n        bytes32 indexed contractId,\n        address indexed sender,\n        address indexed receiver,\n        uint amount,\n        uint256 sk1x,\n        uint256 sk1y,\n        uint timelock\n    );\n    event LogHTLCWithdraw(bytes32 indexed contractId);\n    event LogHTLCRefund(bytes32 indexed contractId);\n\n    struct LockContract {\n        address payable sender;\n        address payable receiver;\n        uint amount;\n        uint256 sk1x;\n        uint256 sk1y; //the pre-set results calculated by the buyer(sender) for future checking\n        uint timelock; // UNIX timestamp seconds - locked UNTIL this time\n        bool withdrawn;\n        bool refunded;\n    }\n    \n    uint256 public constant GX = 0x79BE667EF9DCBBAC55A06295CE870B07029BFCDB2DCE28D959F2815B16F81798;\n    uint256 public constant GY = 0x483ADA7726A3C4655DA4FBFC0E1108A8FD17B448A68554199C47D08FFB10D4B8;\n    uint256 public constant AA = 0;\n    uint256 public constant PP = 0xFFFFFFFFFFFFFFFFFFFFFFFFFFFFFFFFFFFFFFFFFFFFFFFFFFFFFFFEFFFFFC2F;\n    //uint256 public constant sk1x = 112711660439710606056748659173929673102114977341539408544630613555209775888121;\n    //uint256 public constant sk1y = 25583027980570883691656905877401976406448868254816295069919888960541586679410;\n\n    modifier fundsSent() {\n        require(msg.value > 0, \"msg.value must be > 0\");\n        _;\n    }\n    modifier futureTimelock(uint _time) {\n        // only requirement is the timelock time is after the last blocktime (now).\n        // probably want something a bit further in the future then this.\n        // but this is still a useful sanity check:\n        require(_time > now, \"timelock time must be in the future\");\n        _;\n    }\n    modifier contractExists(bytes32 _contractId) {\n        require(haveContract(_contractId), \"contractId does not exist\");\n        _;\n    }\n    modifier sklockMatches(bytes32 _contractId, uint256 sk2) {\n        uint256 sk2x;\n        uint256 sk2y;\n        (sk2x, sk2y) = EllipticCurve.ecMul(sk2,GX,GY,AA,PP);                  //sk2*G(X,Y) \n        require(contracts[_contractId].sk1x == sk2x, \"sk2 does not match\");\n        require(contracts[_contractId].sk1y == sk2y, \"sk2 does not match\");\n        _;\n    }\n    modifier withdrawable(bytes32 _contractId) {\n        require(contracts[_contractId].receiver == msg.sender, \"withdrawable: not receiver\");\n        require(contracts[_contractId].withdrawn == false, \"withdrawable: already withdrawn\");\n        require(contracts[_contractId].timelock > now, \"withdrawable: timelock time must be in the future\");\n        _;\n    }\n    modifier refundable(bytes32 _contractId) {\n        require(contracts[_contractId].sender == msg.sender, \"refundable: not sender\");\n        require(contracts[_contractId].refunded == false, \"refundable: already refunded\");\n        require(contracts[_contractId].withdrawn == false, \"refundable: already withdrawn\");\n        require(contracts[_contractId].timelock <= now, \"refundable: timelock not yet passed\");\n        _;\n    }\n\n    mapping (bytes32 => LockContract) contracts;\n\n    /**\n     * @dev Sender sets up a new hash time lock contract depositing the ETH and\n     * providing the reciever lock terms.\n     *\n     * @param _receiver Receiver of the ETH.\n     * @param _sk1x, _sk1y The calculated results based on sk1 which was given during the negotiation phase.\n     * @param _timelock UNIX epoch seconds time that the lock expires at.\n     *                  Refunds can be made after this time.\n     * @return contractId Id of the new HTLC. This is needed for subsequent\n     *                    calls.\n     */\n    function newContract(address payable _receiver, uint256 _sk1x, uint256 _sk1y, uint _timelock)\n        external\n        payable\n        fundsSent\n        futureTimelock(_timelock)\n        returns (bytes32 contractId)\n    {\n        contractId = keccak256(\n            abi.encodePacked(\n                msg.sender,\n                _receiver,\n                msg.value,\n                _sk1x,\n                _sk1y,\n                _timelock\n            )\n        );\n\n        // Reject if a contract already exists with the same parameters. The\n        // sender must change one of these parameters to create a new distinct\n        // contract.\n        if (haveContract(contractId))\n            revert(\"Contract already exists\");\n\n        contracts[contractId] = LockContract(\n            msg.sender,\n            _receiver,\n            msg.value,\n            _sk1x,\n            _sk1y,\n            _timelock,\n            false,\n            false\n        );\n\n        emit LogHTLCNew(\n            contractId,\n            msg.sender,\n            _receiver,\n            msg.value,\n            _sk1x,\n            _sk1y,\n            _timelock\n        );\n    }\n\n    /**\n     * @dev Called by the receiver once they know sk2.\n     * This will transfer the locked funds to their address.\n     *\n     * @param _contractId Id of the HTLC.\n     * @param _sk2 G(X,Y)**_sk2 should equal to (sk1x,sk1y).\n     * @return bool true on success\n     */\n    function withdraw(bytes32 _contractId, uint256 _sk2)\n        external\n        contractExists(_contractId)\n        sklockMatches(_contractId, _sk2)\n        withdrawable(_contractId)\n        returns (bool)\n    {\n        LockContract storage c = contracts[_contractId];\n        //c.sk2 = _preimage;\n        c.withdrawn = true;\n        c.receiver.transfer(c.amount);\n        emit LogHTLCWithdraw(_contractId);\n        return true;\n    }\n\n    /**\n     * @dev Called by the sender if there was no withdraw AND the time lock has\n     * expired. This will refund the contract amount.\n     *\n     * @param _contractId Id of HTLC to refund from.\n     * @return bool true on success\n     */\n    function refund(bytes32 _contractId)\n        external\n        contractExists(_contractId)\n        refundable(_contractId)\n        returns (bool)\n    {\n        LockContract storage c = contracts[_contractId];\n        c.refunded = true;\n        c.sender.transfer(c.amount);\n        emit LogHTLCRefund(_contractId);\n        return true;\n    }\n\n    /**\n     * @dev Get contract details.\n     * @param _contractId HTLC contract id\n     * return All parameters in struct LockContract for _contractId HTLC\n     */\n    function getContract(bytes32 _contractId) \n    public \n    view \n    returns (\n        address sender,\n        address receiver,\n        uint amount,\n        uint256 sk1x,\n        uint256 sk1y,\n        uint timelock,\n        bool withdrawn,\n        bool refunded)\n    {\n        if (haveContract(_contractId) == false)\n            return (address(0), address(0), 0, 0, 0, 0, false, false);\n        LockContract storage c = contracts[_contractId];\n        return (\n            c.sender,\n            c.receiver,\n            c.amount,\n            c.sk1x,\n            c.sk1y,\n            c.timelock,\n            c.withdrawn,\n            c.refunded\n        );\n    }\n\n    /**\n     * @dev Is there a contract with id _contractId.\n     * @param _contractId Id into contracts mapping.\n     */\n    function haveContract(bytes32 _contractId)\n        internal\n        view\n        returns (bool exists)\n    {\n        exists = (contracts[_contractId].sender != address(0));\n    }\n\n}",
  "sourcePath": "/Users/dougchenli/truffle/FairTrade/contracts/FairTradeExt.sol",
  "compiler": {
    "name": "solc",
    "version": "0.5.16+commit.9c3226ce.Emscripten.clang"
  },
  "schemaVersion": "3.4.1",
  "updatedAt": "2022-12-27T19:29:54.863Z",
  "networkType": "ethereum",
  "devdoc": {
    "methods": {
      "getContract(bytes32)": {
        "details": "Get contract details.",
        "params": {
          "_contractId": "HTLC contract id return All parameters in struct LockContract for _contractId HTLC"
        }
      },
      "newContract(address,uint256,uint256,uint256)": {
        "details": "Sender sets up a new hash time lock contract depositing the ETH and providing the reciever lock terms.",
        "params": {
          "_receiver": "Receiver of the ETH.",
          "_sk1x": ", _sk1y The calculated results based on sk1 which was given during the negotiation phase.",
          "_timelock": "UNIX epoch seconds time that the lock expires at.                 Refunds can be made after this time."
        },
        "return": "contractId Id of the new HTLC. This is needed for subsequent                   calls."
      },
      "refund(bytes32)": {
        "details": "Called by the sender if there was no withdraw AND the time lock has expired. This will refund the contract amount.",
        "params": {
          "_contractId": "Id of HTLC to refund from."
        },
        "return": "bool true on success"
      },
      "withdraw(bytes32,uint256)": {
        "details": "Called by the receiver once they know sk2. This will transfer the locked funds to their address.",
        "params": {
          "_contractId": "Id of the HTLC.",
          "_sk2": "G(X,Y)**_sk2 should equal to (sk1x,sk1y)."
        },
        "return": "bool true on success"
      }
    },
    "title": "Hashed Timelock Contracts (HTLCs) on Ethereum ETH. * This contract provides a way to create and keep HTLCs for ETH. * See FairTradeExtERC20.sol for a contract that provides the same functions for ERC20 tokens. * Protocol: *  1) newContract(receiver, sk1, sk1y, timelock) - a sender calls this to create     a new HTLC and gets back a 32 byte contract id 2) withdraw(contractId, sk2) - once the receiver knows sk2      they can claim the ETH with this function 3) refund() - after timelock has expired and if the receiver did not     withdraw funds the sender / creator of the HTLC can get their ETH     back with this function."
  },
  "userdoc": {
    "methods": {}
  }
}