{
  "contractName": "MerkleProof",
  "abi": [
    {
      "anonymous": false,
      "inputs": [
        {
          "indexed": true,
          "internalType": "bytes32",
          "name": "MerkleRoot",
          "type": "bytes32"
        }
      ],
      "name": "SaveMerkleRoot",
      "type": "event"
    },
    {
      "constant": true,
      "inputs": [
        {
          "internalType": "bytes32[]",
          "name": "leaves",
          "type": "bytes32[]"
        },
        {
          "internalType": "uint256",
          "name": "treeSize",
          "type": "uint256"
        }
      ],
      "name": "hash",
      "outputs": [
        {
          "internalType": "bytes32",
          "name": "",
          "type": "bytes32"
        }
      ],
      "payable": false,
      "stateMutability": "pure",
      "type": "function"
    },
    {
      "constant": false,
      "inputs": [
        {
          "internalType": "bytes32[]",
          "name": "leaves",
          "type": "bytes32[]"
        },
        {
          "internalType": "uint256",
          "name": "treeSize",
          "type": "uint256"
        },
        {
          "internalType": "bytes32",
          "name": "root",
          "type": "bytes32"
        }
      ],
      "name": "verify",
      "outputs": [
        {
          "internalType": "bool",
          "name": "",
          "type": "bool"
        }
      ],
      "payable": true,
      "stateMutability": "payable",
      "type": "function"
    }
  ],
  "bytecode": "0x608060405234801561001057600080fd5b506103f7806100206000396000f3fe6080604052600436106100295760003560e01c806338ac453f1461002e578063fc95234d14610111575b600080fd5b34801561003a57600080fd5b506100fb6004803603604081101561005157600080fd5b810190808035906020019064010000000081111561006e57600080fd5b82018360208201111561008057600080fd5b803590602001918460208302840111640100000000831117156100a257600080fd5b919080806020026020016040519081016040528093929190818152602001838360200280828437600081840152601f19601f820116905080830192505050505050509192919290803590602001909291905050506101b6565b6040518082815260200191505060405180910390f35b61019c6004803603606081101561012757600080fd5b810190808035906020019064010000000081111561014457600080fd5b82018360208201111561015657600080fd5b8035906020019184602083028401116401000000008311171561017857600080fd5b90919293919293908035906020019092919080359060200190929190505050610287565b604051808215151515815260200191505060405180910390f35b60005b600182111561026a57600080905060008090505b83811015610256578481815181106101e157fe5b60200260200101518560018301815181106101f857fe5b602002602001015160405160200180838152602001828152602001925050506040516020818303038152906040528051906020012085838151811061023957fe5b6020026020010181815250506001820191506002810190506101cd565b506002838161026157fe5b049250506101b9565b8260008151811061027757fe5b6020026020010151905092915050565b600061029161039e565b5b600184111561033f57600080905060008090505b8581101561032b578787828181106102ba57fe5b905060200201358888600184018181106102d057fe5b905060200201356040516020018083815260200182815260200192505050604051602081830303815290604052805190602001208383610200811061031157fe5b6020020181815250506001820191506002810190506102a6565b506002858161033657fe5b04945050610292565b82816000610200811061034e57fe5b6020020151141561039057827fd989c2de1e758a53cfb9900615f94b79ef47edf83008c2a9c958819bfd46a27a60405160405180910390a26001915050610396565b60009150505b949350505050565b6040518061400001604052806102009060208202803883398082019150509050509056fea265627a7a72315820117a95eccb16bd88c71343a3b5beebde2b6efa36c11b9cadbba118ca7434d56164736f6c63430005100032",
  "source": "// SPDX-License-Identifier: MIT\npragma solidity ^0.5.0;\n\ncontract MerkleProof {\n\n    event SaveMerkleRoot(bytes32 indexed MerkleRoot);\n\n    function hash(\n        bytes32[] memory leaves,\n        uint treeSize\n    ) public pure returns (bytes32) {\n        while (treeSize > 1) {\n            uint j = 0;\n            for (uint i = 0; i < treeSize; i += 2) {\n                leaves[j] = keccak256(abi.encodePacked(leaves[i],leaves[i+1]));\n                j += 1;\n            }\n            treeSize = treeSize / 2;\n        }\n        //bytes32 val1 = 0xeccf192987704a2cfe51a587aa20b3c88396e498847504b4903c49767914b8d9;\n        //bytes32 val2 = 0xbc49c6c0d844e7c2d3b7cf2e807335db306f0338517a1e83cb119184ea7e32a1\n        //root shoulb be = 0x2b852d7a9a24064ab0f30ba58899be43f02a25ea55924d5e5b519067f09dd8a2;\n\n        return leaves[0];\n    }\n\n    function verify (\n        bytes32[] calldata leaves,\n        uint treeSize,\n        bytes32 root\n    ) external payable returns (bool) {\n        bytes32[512] memory leaf; //need to change this to half of the treeSize each time... very stupid implementation\n        while (treeSize > 1) {\n            uint j = 0;\n            for (uint i = 0; i < treeSize; i += 2) {\n                leaf[j] = keccak256(abi.encodePacked(leaves[i],leaves[i+1]));\n                j += 1;\n            }\n            treeSize = treeSize / 2;\n        }\n\n        if (leaf[0] == root) {\n            emit SaveMerkleRoot(root);\n            return true;\n        }\n        return false;\n    }\n}",
  "sourcePath": "/Users/dougchenli/truffle/FairTrade/contracts/MerkleProof.sol",
  "compiler": {
    "name": "solc",
    "version": "0.5.16+commit.9c3226ce.Emscripten.clang"
  },
  "schemaVersion": "3.4.1",
  "updatedAt": "2023-04-13T15:03:11.086Z",
  "networkType": "ethereum",
  "devdoc": {
    "methods": {}
  },
  "userdoc": {
    "methods": {}
  }
}