{
  "contractName": "TestHash",
  "abi": [
    {
      "anonymous": false,
      "inputs": [
        {
          "indexed": false,
          "internalType": "uint256",
          "name": "x",
          "type": "uint256"
        }
      ],
      "name": "CalLog",
      "type": "event"
    },
    {
      "anonymous": false,
      "inputs": [
        {
          "indexed": false,
          "internalType": "uint256",
          "name": "x1",
          "type": "uint256"
        },
        {
          "indexed": false,
          "internalType": "uint256",
          "name": "x2",
          "type": "uint256"
        }
      ],
      "name": "ResultLog",
      "type": "event"
    },
    {
      "anonymous": false,
      "inputs": [
        {
          "indexed": false,
          "internalType": "uint256",
          "name": "sig",
          "type": "uint256"
        },
        {
          "indexed": false,
          "internalType": "uint256",
          "name": "r",
          "type": "uint256"
        }
      ],
      "name": "SigLog",
      "type": "event"
    },
    {
      "constant": true,
      "inputs": [],
      "name": "AA",
      "outputs": [
        {
          "internalType": "uint256",
          "name": "",
          "type": "uint256"
        }
      ],
      "payable": false,
      "stateMutability": "view",
      "type": "function"
    },
    {
      "constant": true,
      "inputs": [],
      "name": "BB",
      "outputs": [
        {
          "internalType": "uint256",
          "name": "",
          "type": "uint256"
        }
      ],
      "payable": false,
      "stateMutability": "view",
      "type": "function"
    },
    {
      "constant": true,
      "inputs": [],
      "name": "GX",
      "outputs": [
        {
          "internalType": "uint256",
          "name": "",
          "type": "uint256"
        }
      ],
      "payable": false,
      "stateMutability": "view",
      "type": "function"
    },
    {
      "constant": true,
      "inputs": [],
      "name": "GY",
      "outputs": [
        {
          "internalType": "uint256",
          "name": "",
          "type": "uint256"
        }
      ],
      "payable": false,
      "stateMutability": "view",
      "type": "function"
    },
    {
      "constant": true,
      "inputs": [],
      "name": "NN",
      "outputs": [
        {
          "internalType": "uint256",
          "name": "",
          "type": "uint256"
        }
      ],
      "payable": false,
      "stateMutability": "view",
      "type": "function"
    },
    {
      "constant": true,
      "inputs": [],
      "name": "PP",
      "outputs": [
        {
          "internalType": "uint256",
          "name": "",
          "type": "uint256"
        }
      ],
      "payable": false,
      "stateMutability": "view",
      "type": "function"
    },
    {
      "constant": true,
      "inputs": [],
      "name": "qx",
      "outputs": [
        {
          "internalType": "uint256",
          "name": "",
          "type": "uint256"
        }
      ],
      "payable": false,
      "stateMutability": "view",
      "type": "function"
    },
    {
      "constant": true,
      "inputs": [],
      "name": "qy",
      "outputs": [
        {
          "internalType": "uint256",
          "name": "",
          "type": "uint256"
        }
      ],
      "payable": false,
      "stateMutability": "view",
      "type": "function"
    },
    {
      "constant": true,
      "inputs": [],
      "name": "res_x",
      "outputs": [
        {
          "internalType": "uint256",
          "name": "",
          "type": "uint256"
        }
      ],
      "payable": false,
      "stateMutability": "view",
      "type": "function"
    },
    {
      "constant": true,
      "inputs": [],
      "name": "sk",
      "outputs": [
        {
          "internalType": "uint256",
          "name": "",
          "type": "uint256"
        }
      ],
      "payable": false,
      "stateMutability": "view",
      "type": "function"
    },
    {
      "constant": true,
      "inputs": [
        {
          "internalType": "bytes32",
          "name": "_x",
          "type": "bytes32"
        }
      ],
      "name": "CalHash",
      "outputs": [
        {
          "internalType": "bytes32",
          "name": "hashval",
          "type": "bytes32"
        }
      ],
      "payable": false,
      "stateMutability": "pure",
      "type": "function"
    },
    {
      "constant": false,
      "inputs": [
        {
          "internalType": "address payable",
          "name": "_sender",
          "type": "address"
        },
        {
          "internalType": "uint256",
          "name": "privKey",
          "type": "uint256"
        }
      ],
      "name": "derivePubKey",
      "outputs": [
        {
          "internalType": "uint256",
          "name": "qx",
          "type": "uint256"
        },
        {
          "internalType": "uint256",
          "name": "qy",
          "type": "uint256"
        }
      ],
      "payable": true,
      "stateMutability": "payable",
      "type": "function"
    },
    {
      "constant": false,
      "inputs": [
        {
          "internalType": "address payable",
          "name": "_sender",
          "type": "address"
        },
        {
          "internalType": "uint256",
          "name": "sk2",
          "type": "uint256"
        }
      ],
      "name": "KeyGen",
      "outputs": [
        {
          "internalType": "uint256",
          "name": "a",
          "type": "uint256"
        },
        {
          "internalType": "uint256",
          "name": "b",
          "type": "uint256"
        }
      ],
      "payable": true,
      "stateMutability": "payable",
      "type": "function"
    },
    {
      "constant": false,
      "inputs": [
        {
          "internalType": "address payable",
          "name": "_sender",
          "type": "address"
        },
        {
          "internalType": "uint256",
          "name": "_r2",
          "type": "uint256"
        },
        {
          "internalType": "string",
          "name": "_m2",
          "type": "string"
        },
        {
          "internalType": "uint256",
          "name": "_s2",
          "type": "uint256"
        }
      ],
      "name": "SigVerify",
      "outputs": [
        {
          "internalType": "uint256",
          "name": "res_x1",
          "type": "uint256"
        }
      ],
      "payable": true,
      "stateMutability": "payable",
      "type": "function"
    },
    {
      "constant": false,
      "inputs": [
        {
          "internalType": "address payable",
          "name": "_sender",
          "type": "address"
        },
        {
          "internalType": "uint256",
          "name": "_k",
          "type": "uint256"
        },
        {
          "internalType": "string",
          "name": "_m2",
          "type": "string"
        }
      ],
      "name": "SigGen",
      "outputs": [
        {
          "internalType": "uint256",
          "name": "_s",
          "type": "uint256"
        },
        {
          "internalType": "uint256",
          "name": "_r",
          "type": "uint256"
        }
      ],
      "payable": true,
      "stateMutability": "payable",
      "type": "function"
    }
  ],
  "bytecode": "0x608060405234801561001057600080fd5b50611c25806100206000396000f3fe6080604052600436106100e85760003560e01c8063910c85611161008a578063bb89d19911610059578063bb89d199146102e4578063cf1846bc1461030f578063eeeac01e1461033f578063f0a905201461036a576100e8565b8063910c8561146102325780639870e2a414610263578063997da8d41461028e578063b2e5c527146102b9576100e8565b80635727dc5c116100c65780635727dc5c146101745780636cd03d5d1461019f5780637a308a4c146101ca57806383893064146101f5576100e8565b806303a507be146100ed5780631ee815d31461011857806347e6814c14610149575b600080fd5b3480156100f957600080fd5b5061010261039b565b60405161010f9190611a31565b60405180910390f35b610132600480360361012d9190810190611586565b6103bf565b604051610140929190611a4c565b60405180910390f35b34801561015557600080fd5b5061015e61047e565b60405161016b9190611a31565b60405180910390f35b34801561018057600080fd5b506101896104a2565b6040516101969190611a31565b60405180910390f35b3480156101ab57600080fd5b506101b46104a7565b6040516101c19190611a31565b60405180910390f35b3480156101d657600080fd5b506101df6104cb565b6040516101ec9190611a31565b60405180910390f35b34801561020157600080fd5b5061021c600480360361021791908101906116a4565b6104ef565b6040516102299190611956565b60405180910390f35b61024c60048036036102479190810190611586565b61056a565b60405161025a929190611a4c565b60405180910390f35b34801561026f57600080fd5b506102786106b5565b6040516102859190611a31565b60405180910390f35b34801561029a57600080fd5b506102a36106d9565b6040516102b09190611a31565b60405180910390f35b3480156102c557600080fd5b506102ce6106de565b6040516102db9190611a31565b60405180910390f35b3480156102f057600080fd5b506102f9610702565b6040516103069190611a31565b60405180910390f35b61032960048036036103249190810190611629565b610707565b6040516103369190611a31565b60405180910390f35b34801561034b57600080fd5b50610354610a23565b6040516103619190611a31565b60405180910390f35b610384600480360361037f91908101906115c2565b610a47565b604051610392929190611a4c565b60405180910390f35b7f79be667ef9dcbbac55a06295ce870b07029bfcdb2dce28d959f2815b16f8179881565b600080610430837f79be667ef9dcbbac55a06295ce870b07029bfcdb2dce28d959f2815b16f817987f483ada7726a3c4655da4fbfc0e1108a8fd17b448a68554199c47d08ffb10d4b860007ffffffffffffffffffffffffffffffffffffffffffffffffffffffffefffffc2f610c62565b80925081935050507fa59570cb42515adda74660b7faf5d583fdff47127b7af19549d5bde84cc846328282604051610469929190611a4c565b60405180910390a18181915091509250929050565b7fe493dbf1c10d80f3581e4904930b1404cc6c13900ee0758474fa94abe8c4cd1381565b600781565b7f51ed993ea0d455b75642e2098ea51448d967ae33bfbdfe40cfe97bdc4773992281565b7f483ada7726a3c4655da4fbfc0e1108a8fd17b448a68554199c47d08ffb10d4b881565b6000600282604051602001610504919061190d565b6040516020818303038152906040526040516105209190611928565b602060405180830381855afa15801561053d573d6000803e3d6000fd5b5050506040513d601f19601f8201168201806040525061056091908101906116cd565b9050809050919050565b60008060008060007ff9308a019258c31049344f85f89d5229b531c845836f99b08601f113bce036f9905060007f388f7b0f632de8140fe337e62a37f3566500a99934c2231b6cb9fd7584b8e6729050610628877f79be667ef9dcbbac55a06295ce870b07029bfcdb2dce28d959f2815b16f817987f483ada7726a3c4655da4fbfc0e1108a8fd17b448a68554199c47d08ffb10d4b860007ffffffffffffffffffffffffffffffffffffffffffffffffffffffffefffffc2f610c62565b809450819550505083821461064d5760008081915080905095509550505050506106ae565b82811461066a5760008081915080905095509550505050506106ae565b7fa59570cb42515adda74660b7faf5d583fdff47127b7af19549d5bde84cc84632848460405161069b929190611a4c565b60405180910390a1838395509550505050505b9250929050565b7ffffffffffffffffffffffffffffffffebaaedce6af48a03bbfd25e8cd036414181565b600081565b7f3198f2e263d08e4f6451f9046061369a53f71411b4450c89f66d082186382ff781565b600481565b6000808360405160200161071b919061193f565b60405160208183030381529060405280519060200120905060008160001c90507ffffffffffffffffffffffffffffffffebaaedce6af48a03bbfd25e8cd036414181111561079e576040517f08c379a0000000000000000000000000000000000000000000000000000000008152600401610795906119d1565b60405180910390fd5b60006107ca857ffffffffffffffffffffffffffffffffebaaedce6af48a03bbfd25e8cd0364141610c9c565b90507ffffffffffffffffffffffffffffffffebaaedce6af48a03bbfd25e8cd036414181816107f557fe5b0690507ffffffffffffffffffffffffffffffffebaaedce6af48a03bbfd25e8cd03641418183028161082357fe5b0691507ffffffffffffffffffffffffffffffffebaaedce6af48a03bbfd25e8cd03641418188028161085157fe5b0690506000806108c5847f79be667ef9dcbbac55a06295ce870b07029bfcdb2dce28d959f2815b16f817987f483ada7726a3c4655da4fbfc0e1108a8fd17b448a68554199c47d08ffb10d4b860007ffffffffffffffffffffffffffffffffffffffffffffffffffffffffefffffc2f610c62565b809250819350505061093b837fe493dbf1c10d80f3581e4904930b1404cc6c13900ee0758474fa94abe8c4cd137f51ed993ea0d455b75642e2098ea51448d967ae33bfbdfe40cfe97bdc4773992260007ffffffffffffffffffffffffffffffffffffffffffffffffffffffffefffffc2f610c62565b80945081955050506109728282868660007ffffffffffffffffffffffffffffffffffffffffffffffffffffffffefffffc2f610d61565b80925081935050507f69cdcc8b46fb2a4eeb190605ec1050eca96ec492bfc34f0b345b476111daaada826040516109a99190611a31565b60405180910390a17f3198f2e263d08e4f6451f9046061369a53f71411b4450c89f66d082186382ff78214610a13576040517f08c379a0000000000000000000000000000000000000000000000000000000008152600401610a0a90611a11565b60405180910390fd5b8195505050505050949350505050565b7ffffffffffffffffffffffffffffffffffffffffffffffffffffffffefffffc2f81565b600080600083604051602001610a5d919061193f565b60405160208183030381529060405280519060200120905060008160001c90506000610aa9877ffffffffffffffffffffffffffffffffebaaedce6af48a03bbfd25e8cd0364141610c9c565b9050600080600080610b1f8b7f79be667ef9dcbbac55a06295ce870b07029bfcdb2dce28d959f2815b16f817987f483ada7726a3c4655da4fbfc0e1108a8fd17b448a68554199c47d08ffb10d4b860007ffffffffffffffffffffffffffffffffffffffffffffffffffffffffefffffc2f610c62565b80945081955050507ffffffffffffffffffffffffffffffffebaaedce6af48a03bbfd25e8cd03641418481610b5057fe5b0691506000821415610b97576040517f08c379a0000000000000000000000000000000000000000000000000000000008152600401610b8e90611991565b60405180910390fd5b60048202905085810190507ffffffffffffffffffffffffffffffffebaaedce6af48a03bbfd25e8cd036414185820281610bcd57fe5b0690506000811415610c14576040517f08c379a0000000000000000000000000000000000000000000000000000000008152600401610c0b90611971565b60405180910390fd5b7fb1d085b0a31081e1d3292afdb08e38a1c9f2bf199a3ea63c389ecfbf3d3b9cf28183604051610c45929190611a4c565b60405180910390a180829850985050505050505050935093915050565b6000806000806000610c798a8a8a60018b8b610dff565b925092509250610c8b83838389610ea4565b945094505050509550959350505050565b6000808314158015610cae5750818314155b8015610cbb575060008214155b610cfa576040517f08c379a0000000000000000000000000000000000000000000000000000000008152600401610cf1906119f1565b60405180910390fd5b6000809050600060019050600084905060005b60008714610d5457868281610d1e57fe5b049050828680610d2a57fe5b8780610d3257fe5b8584098803860880945081955050508687820283038098508193505050610d0d565b8394505050505092915050565b600080600080905060008090506000809050888b1415610dc25760008680610d8557fe5b898c081415610da35760008081915080905094509450505050610df4565b610db18b8b60018a8a610eff565b809350819450829550505050610de0565b610dd38b8b60018c8c60018c61101e565b8093508194508295505050505b610dec83838389610ea4565b945094505050505b965096945050505050565b600080600080891415610e1a57878787925092509250610e98565b6000899050600080905060008090506000600190505b60008414610e8a5760006001851614610e5f57610e528383838f8f8f8e61101e565b8093508194508295505050505b60028481610e6957fe5b049350610e798c8c8c8c8c610eff565b809c50819d50829e50505050610e30565b828282965096509650505050505b96509650969350505050565b6000806000610eb38585610c9c565b905060008480610ebf57fe5b828309905060008580610ece57fe5b828a09905060008680610edd57fe5b8780610ee557fe5b8486098a0990508181955095505050505094509492505050565b600080600080861415610f1a57878787925092509250611013565b60008480610f2457fe5b898a09905060008580610f3357fe5b898a09905060008680610f4257fe5b898a09905060008780610f5157fe5b8880610f5957fe5b848e09600409905060008880610f6b57fe5b8980610f7357fe5b8a80610f7b57fe5b8586098c098a80610f8857fe5b876003090890508880610f9757fe5b8980610f9f57fe5b8384088a038a80610fac57fe5b8384090894508880610fba57fe5b8980610fc257fe5b8a80610fca57fe5b8687096008098a038a80610fda57fe5b8b80610fe257fe5b888d03860884090893508880610ff457fe5b8980610ffc57fe5b8c8e09600209925084848497509750975050505050505b955095509592505050565b6000806000808a1480156110325750600089145b15611045578686869250925092506114af565b6000871480156110555750600086145b15611068578989899250925092506114af565b6110706114bc565b848061107857fe5b898a098160006004811061108857fe5b602002018181525050848061109957fe5b816000600481106110a657fe5b60200201518a09816001600481106110ba57fe5b60200201818152505084806110cb57fe5b868709816002600481106110db57fe5b60200201818152505084806110ec57fe5b816002600481106110f957fe5b602002015187098160036004811061110d57fe5b6020020181815250506040518060800160405280868061112957fe5b8360026004811061113657fe5b60200201518e098152602001868061114a57fe5b8360036004811061115757fe5b60200201518d098152602001868061116b57fe5b8360006004811061117857fe5b60200201518b098152602001868061118c57fe5b8360016004811061119957fe5b60200201518a098152509050806002600481106111b257fe5b6020020151816000600481106111c457fe5b60200201511415806111f85750806003600481106111de57fe5b6020020151816001600481106111f057fe5b602002015114155b611237576040517f08c379a000000000000000000000000000000000000000000000000000000000815260040161122e906119b1565b60405180910390fd5b61123f6114bc565b858061124757fe5b8260006004811061125457fe5b602002015187038360026004811061126857fe5b6020020151088160006004811061127b57fe5b602002018181525050858061128c57fe5b8260016004811061129957fe5b60200201518703836003600481106112ad57fe5b602002015108816001600481106112c057fe5b60200201818152505085806112d157fe5b816000600481106112de57fe5b6020020151826000600481106112f057fe5b6020020151098160026004811061130357fe5b602002018181525050858061131457fe5b8160006004811061132157fe5b60200201518260026004811061133357fe5b6020020151098160036004811061134657fe5b6020020181815250506000868061135957fe5b8260036004811061136657fe5b60200201518803888061137557fe5b8460016004811061138257fe5b60200201518560016004811061139457fe5b60200201510908905086806113a557fe5b87806113ad57fe5b88806113b557fe5b846002600481106113c257fe5b6020020151866000600481106113d457fe5b602002015109600209880382089050600087806113ed57fe5b88806113f557fe5b838a038a8061140057fe5b8660026004811061140d57fe5b60200201518860006004811061141f57fe5b602002015109088460016004811061143357fe5b6020020151099050878061144357fe5b888061144b57fe5b8460036004811061145857fe5b60200201518660016004811061146a57fe5b6020020151098903820890506000888061148057fe5b898061148857fe5b8b8f098560006004811061149857fe5b602002015109905082828297509750975050505050505b9750975097945050505050565b6040518060800160405280600490602082028038833980820191505090505090565b6000813590506114ed81611b9d565b92915050565b60008135905061150281611bb4565b92915050565b60008151905061151781611bb4565b92915050565b600082601f83011261152e57600080fd5b813561154161153c82611aa2565b611a75565b9150808252602083016020830185838301111561155d57600080fd5b611568838284611b51565b50505092915050565b60008135905061158081611bcb565b92915050565b6000806040838503121561159957600080fd5b60006115a7858286016114de565b92505060206115b885828601611571565b9150509250929050565b6000806000606084860312156115d757600080fd5b60006115e5868287016114de565b93505060206115f686828701611571565b925050604084013567ffffffffffffffff81111561161357600080fd5b61161f8682870161151d565b9150509250925092565b6000806000806080858703121561163f57600080fd5b600061164d878288016114de565b945050602061165e87828801611571565b935050604085013567ffffffffffffffff81111561167b57600080fd5b6116878782880161151d565b925050606061169887828801611571565b91505092959194509250565b6000602082840312156116b657600080fd5b60006116c4848285016114f3565b91505092915050565b6000602082840312156116df57600080fd5b60006116ed84828501611508565b91505092915050565b6116ff81611b1d565b82525050565b61171661171182611b1d565b611b93565b82525050565b600061172782611ace565b6117318185611ae4565b9350611741818560208601611b60565b80840191505092915050565b600061175882611ad9565b6117628185611b00565b9350611772818560208601611b60565b80840191505092915050565b600061178b601d83611aef565b91507f6661696c20746f2063616c63756c61746520732c206368616e6765206b0000006000830152602082019050919050565b60006117cb601783611aef565b91507f696e76616c6964206b2c2063686f6f736520616761696e0000000000000000006000830152602082019050919050565b600061180b601e83611aef565b91507f557365206a6163446f75626c652066756e6374696f6e20696e737465616400006000830152602082019050919050565b600061184b601083611aef565b91507f63686f6f736520616e6f74686572206d000000000000000000000000000000006000830152602082019050919050565b600061188b600e83611aef565b91507f496e76616c6964206e756d6265720000000000000000000000000000000000006000830152602082019050919050565b60006118cb601783611aef565b91507f5369676e617475726520646f65736e2774206d617463680000000000000000006000830152602082019050919050565b61190781611b47565b82525050565b60006119198284611705565b60208201915081905092915050565b6000611934828461171c565b915081905092915050565b600061194b828461174d565b915081905092915050565b600060208201905061196b60008301846116f6565b92915050565b6000602082019050818103600083015261198a8161177e565b9050919050565b600060208201905081810360008301526119aa816117be565b9050919050565b600060208201905081810360008301526119ca816117fe565b9050919050565b600060208201905081810360008301526119ea8161183e565b9050919050565b60006020820190508181036000830152611a0a8161187e565b9050919050565b60006020820190508181036000830152611a2a816118be565b9050919050565b6000602082019050611a4660008301846118fe565b92915050565b6000604082019050611a6160008301856118fe565b611a6e60208301846118fe565b9392505050565b6000604051905081810181811067ffffffffffffffff82111715611a9857600080fd5b8060405250919050565b600067ffffffffffffffff821115611ab957600080fd5b601f19601f8301169050602081019050919050565b600081519050919050565b600081519050919050565b600081905092915050565b600082825260208201905092915050565b600081905092915050565b6000611b1682611b27565b9050919050565b6000819050919050565b600073ffffffffffffffffffffffffffffffffffffffff82169050919050565b6000819050919050565b82818337600083830152505050565b60005b83811015611b7e578082015181840152602081019050611b63565b83811115611b8d576000848401525b50505050565b6000819050919050565b611ba681611b0b565b8114611bb157600080fd5b50565b611bbd81611b1d565b8114611bc857600080fd5b50565b611bd481611b47565b8114611bdf57600080fd5b5056fea365627a7a723158205965684b3d435c452423db1c1578a6fd019861254fc7db9e73e906d236d7d3506c6578706572696d656e74616cf564736f6c63430005100040",
  "source": "pragma solidity ^0.5.0;\npragma experimental ABIEncoderV2;\n\n\nimport \"./EllipticCurve.sol\";\n\ncontract TestHash {\n    function CalHash(bytes32 _x) external pure returns (bytes32 hashval) {\n        hashval = sha256(abi.encodePacked(_x)) ;\n        return hashval;\n    }\n\n    uint256 public constant GX = 0x79BE667EF9DCBBAC55A06295CE870B07029BFCDB2DCE28D959F2815B16F81798;\n    uint256 public constant GY = 0x483ADA7726A3C4655DA4FBFC0E1108A8FD17B448A68554199C47D08FFB10D4B8;\n    uint256 public constant AA = 0;\n    uint256 public constant BB = 7;\n    uint256 public constant PP = 0xFFFFFFFFFFFFFFFFFFFFFFFFFFFFFFFFFFFFFFFFFFFFFFFFFFFFFFFEFFFFFC2F;\n    uint256 public constant NN = 115792089237316195423570985008687907852837564279074904382605163141518161494337;    //order of secp256k1\n    uint256 public constant sk = 4;\n    uint256 public constant qx = 103388573995635080359749164254216598308788835304023601477803095234286494993683;    //public key pair (x,y)\n    uint256 public constant qy = 37057141145242123013015316630864329550140216928701153669873286428255828810018;\n    uint256 public constant res_x = 22433566660501949336591728236966687972342496606863864686753372370377308123127;\n    //uint256 public constant sk1x = 112711660439710606056748659173929673102114977341539408544630613555209775888121;\n    //uint256 public constant sk1y = 25583027980570883691656905877401976406448868254816295069919888960541586679410;\n\n    event ResultLog(uint256 x1, uint256 x2);\n    event SigLog(uint256 sig, uint256 r);\n    event CalLog(uint256 x);\n\n    function derivePubKey(address payable _sender, uint256 privKey) public payable returns(uint256 qx, uint256 qy) {\n    (qx, qy) = EllipticCurve.ecMul(\n      privKey,\n      GX,\n      GY,\n      AA,\n      PP\n    );\n    emit ResultLog(qx, qy);\n    return(qx, qy);\n    }\n\n    function KeyGen(address payable _sender, uint256 sk2) \n    external \n    payable \n    returns (\n        uint256 a, \n        uint256 b) \n    {\n        uint256 sk2x;\n        uint256 sk2y;\n        uint256 sk1x = 112711660439710606056748659173929673102114977341539408544630613555209775888121;\n        uint256 sk1y = 25583027980570883691656905877401976406448868254816295069919888960541586679410;\n        //uint256 sk2 = 3;\n        (sk2x, sk2y) = EllipticCurve.ecMul(sk2,GX,GY,AA,PP);\n        if (sk1x != sk2x)\n            return(0,0);\n        if (sk1y != sk2y)\n            return(0,0);\n        emit ResultLog(sk2x, sk2y);\n        return (sk2x, sk2y);\n    }\n\n    function SigVerify(address payable _sender, uint256 _r2, string memory _m2, uint256 _s2) \n    public \n    payable \n    returns (uint256 res_x1)\n    {\n        bytes32 e = keccak256(abi.encodePacked(_m2));\n        uint256 z = uint256(e);\n        if (z > NN)\n            revert(\"choose another m\");\n        uint256 w = EllipticCurve.invMod(_s2,NN);\n        w = w % NN;\n        z = (z * w) % NN;\n        w = (_r2 * w) % NN;\n        uint256 x1;\n        uint256 y1;\n        (x1,y1) = EllipticCurve.ecMul(z,GX,GY,AA,PP); \n        (z,w) = EllipticCurve.ecMul(w,qx,qy,AA,PP); \n        (x1,y1) = EllipticCurve.ecAdd(x1,y1,z,w,AA,PP);\n        emit CalLog(x1);\n        //uint256 s2 = 109247258617027406760302683006541450594023277067167994168140084578855052108858;\n        if (x1 != res_x)\n            revert(\"Signature doesn't match\");\n        return(x1);\n    }\n    function SigGen(address payable _sender, uint256 _k, string memory _m2)\n    public \n    payable \n    returns (\n        uint256 _s,\n        uint256 _r)\n    {\n        bytes32 e = keccak256(abi.encodePacked(_m2));\n        uint256 z = uint256(e);\n        uint256 w = EllipticCurve.invMod(_k,NN);\n        uint256 xk;\n        uint256 yk;\n        uint256 r;\n        uint256 s;\n        (xk,yk) = EllipticCurve.ecMul(_k,GX,GY,AA,PP); \n        r = xk % NN;\n        if (r == 0)\n            revert(\"invalid k, choose again\");\n        s = r * sk;\n        s = s + z;\n        s = (s * w) % NN;\n        if (s == 0)\n            revert(\"fail to calculate s, change k\");\n        //uint256 s2 = 109247258617027406760302683006541450594023277067167994168140084578855052108858;\n        emit SigLog(s,r);\n        return (s,r);\n    }\n}",
  "sourcePath": "/Users/dougchenli/truffle/FairTrade/contracts/TestHash.sol",
  "compiler": {
    "name": "solc",
    "version": "0.5.16+commit.9c3226ce.Emscripten.clang"
  },
  "schemaVersion": "3.4.1",
  "updatedAt": "2022-12-27T19:29:54.816Z",
  "networkType": "ethereum",
  "devdoc": {
    "methods": {}
  },
  "userdoc": {
    "methods": {}
  }
}