{
  "contractName": "TestMerkleProof",
  "abi": [
    {
      "inputs": [],
      "payable": false,
      "stateMutability": "nonpayable",
      "type": "constructor"
    },
    {
      "constant": true,
      "inputs": [
        {
          "internalType": "uint256",
          "name": "",
          "type": "uint256"
        }
      ],
      "name": "hashes",
      "outputs": [
        {
          "internalType": "bytes32",
          "name": "",
          "type": "bytes32"
        }
      ],
      "payable": false,
      "stateMutability": "view",
      "type": "function"
    },
    {
      "constant": true,
      "inputs": [
        {
          "internalType": "bytes32[]",
          "name": "proof",
          "type": "bytes32[]"
        },
        {
          "internalType": "bytes32",
          "name": "root",
          "type": "bytes32"
        },
        {
          "internalType": "bytes32",
          "name": "leaf",
          "type": "bytes32"
        },
        {
          "internalType": "uint256",
          "name": "index",
          "type": "uint256"
        }
      ],
      "name": "verify",
      "outputs": [
        {
          "internalType": "bool",
          "name": "",
          "type": "bool"
        }
      ],
      "payable": false,
      "stateMutability": "pure",
      "type": "function"
    },
    {
      "constant": true,
      "inputs": [],
      "name": "getRoot",
      "outputs": [
        {
          "internalType": "bytes32",
          "name": "",
          "type": "bytes32"
        }
      ],
      "payable": false,
      "stateMutability": "view",
      "type": "function"
    }
  ],
  "bytecode": "0x608060405234801561001057600080fd5b506100196102b9565b60405180608001604052806040518060400160405280600c81526020017f616c696365202d3e20626f62000000000000000000000000000000000000000081525081526020016040518060400160405280600b81526020017f626f62202d3e206461766500000000000000000000000000000000000000000081525081526020016040518060400160405280600e81526020017f6361726f6c202d3e20616c69636500000000000000000000000000000000000081525081526020016040518060400160405280600b81526020017f64617665202d3e20626f62000000000000000000000000000000000000000000815250815250905060008090505b60048110156101d957600082826004811061012d57fe5b60200201516040516020018082805190602001908083835b602083106101685780518252602082019150602081019050602083039250610145565b6001836020036101000a0380198251168184511680821785525050505050509050019150506040516020818303038152906040528051906020012090806001815401808255809150509060018203906000526020600020016000909192909190915055508080600101915050610116565b5060006004905060008090505b60008211156102b15760008090505b60018303811015610299576000808284018154811061021057fe5b906000526020600020015460006001848601018154811061022d57fe5b906000526020600020015460405160200180838152602001828152602001925050506040516020818303038152906040528051906020012090806001815401808255809150509060018203906000526020600020016000909192909190915055506002810190506101f5565b508181019050600282816102a957fe5b0491506101e6565b5050506102e0565b60405180608001604052806004905b60608152602001906001900390816102c85790505090565b6102e2806102ef6000396000f3fe608060405234801561001057600080fd5b50600436106100415760003560e01c806321fb335c14610046578063501895ae146101345780635ca1e16514610176575b600080fd5b61011a6004803603608081101561005c57600080fd5b810190808035906020019064010000000081111561007957600080fd5b82018360208201111561008b57600080fd5b803590602001918460208302840111640100000000831117156100ad57600080fd5b919080806020026020016040519081016040528093929190818152602001838360200280828437600081840152601f19601f820116905080830192505050505050509192919290803590602001909291908035906020019092919080359060200190929190505050610194565b604051808215151515815260200191505060405180910390f35b6101606004803603602081101561014a57600080fd5b8101908080359060200190929190505050610266565b6040518082815260200191505060405180910390f35b61017e610287565b6040518082815260200191505060405180910390f35b60008083905060008090505b86518110156102575760008782815181106101b757fe5b602002602001015190506000600286816101cd57fe5b06141561020a578281604051602001808381526020018281526020019250505060405160208183030381529060405280519060200120925061023c565b808360405160200180838152602001828152602001925050506040516020818303038152906040528051906020012092505b6002858161024657fe5b0494505080806001019150506101a0565b50848114915050949350505050565b6000818154811061027357fe5b906000526020600020016000915090505481565b6000806001600080549050038154811061029d57fe5b906000526020600020015490509056fea265627a7a72315820864b2b9abe00f664a2571be759863a1c3c7bd06fce0ac16dc9efbbed440e00ad64736f6c63430005100032",
  "source": "// SPDX-License-Identifier: MIT\npragma solidity ^0.5.0;\n\ncontract MerkleProof {\n    function verify(\n        bytes32[] memory proof,\n        bytes32 root,\n        bytes32 leaf,\n        uint index\n    ) public pure returns (bool) {\n        bytes32 hash = leaf;\n\n        for (uint i = 0; i < proof.length; i++) {\n            bytes32 proofElement = proof[i];\n\n            if (index % 2 == 0) {\n                hash = keccak256(abi.encodePacked(hash, proofElement));\n            } else {\n                hash = keccak256(abi.encodePacked(proofElement, hash));\n            }\n\n            index = index / 2;\n        }\n\n        return hash == root;\n    }\n}\n\ncontract TestMerkleProof is MerkleProof {\n    bytes32[] public hashes;\n\n    constructor() public {\n        string[4] memory transactions = [\n            \"alice -> bob\",\n            \"bob -> dave\",\n            \"carol -> alice\",\n            \"dave -> bob\"\n        ];\n\n        for (uint i = 0; i < transactions.length; i++) {\n            hashes.push(keccak256(abi.encodePacked(transactions[i])));\n        }\n\n        uint n = transactions.length;\n        uint offset = 0;\n\n        while (n > 0) {\n            for (uint i = 0; i < n - 1; i += 2) {\n                hashes.push(\n                    keccak256(\n                        abi.encodePacked(hashes[offset + i], hashes[offset + i + 1])\n                    )\n                );\n            }\n            offset += n;\n            n = n / 2;\n        }\n    }\n\n    function getRoot() public view returns (bytes32) {\n        return hashes[hashes.length - 1];\n    }\n\n    /* verify\n    3rd leaf\n    0xdca3326ad7e8121bf9cf9c12333e6b2271abe823ec9edfe42f813b1e768fa57b\n\n    root\n    0xcc086fcc038189b4641db2cc4f1de3bb132aefbd65d510d817591550937818c7\n\n    index\n    2\n\n      proof\n    0x8da9e1c820f9dbd1589fd6585872bc1063588625729e7ab0797cfc63a00bd950\n    0x995788ffc103b987ad50f5e5707fd094419eb12d9552cc423bd0cd86a3861433\n    */\n}",
  "sourcePath": "/Users/dougchenli/truffle/FairTrade/contracts/MerkleProof.sol",
  "compiler": {
    "name": "solc",
    "version": "0.5.16+commit.9c3226ce.Emscripten.clang"
  },
  "schemaVersion": "3.4.1",
  "updatedAt": "2023-01-10T16:52:49.491Z",
  "devdoc": {
    "methods": {}
  },
  "userdoc": {
    "methods": {}
  }
}