{
  "contractName": "TestHash",
  "abi": [
    {
      "constant": true,
      "inputs": [
        {
          "internalType": "bytes32",
          "name": "_x",
          "type": "bytes32"
        }
      ],
      "name": "func",
      "outputs": [
        {
          "internalType": "bytes32",
          "name": "hashval",
          "type": "bytes32"
        }
      ],
      "payable": false,
      "stateMutability": "pure",
      "type": "function"
    }
  ],
  "bytecode": "0x608060405234801561001057600080fd5b50610170806100206000396000f3fe608060405234801561001057600080fd5b506004361061002b5760003560e01c80633ef294fc14610030575b600080fd5b61005c6004803603602081101561004657600080fd5b8101908080359060200190929190505050610072565b6040518082815260200191505060405180910390f35b6000600282604051602001808281526020019150506040516020818303038152906040526040518082805190602001908083835b602083106100c957805182526020820191506020810190506020830392506100a6565b6001836020036101000a038019825116818451168082178552505050505050905001915050602060405180830381855afa15801561010b573d6000803e3d6000fd5b5050506040513d602081101561012057600080fd5b8101908080519060200190929190505050905080905091905056fea265627a7a72315820fbd4ba01932a1ebc6eef890c1e32417f375564acf65daa77b2f3294cbc952d3464736f6c63430005100032",
  "source": "pragma solidity ^0.5.0;\n\ncontract TestHash {\n    function func(bytes32 _x) external pure returns (bytes32 hashval) {\n        hashval = sha256(abi.encodePacked(_x)) ;\n        return hashval;\n    }\n}",
  "sourcePath": "/Users/dougchenli/truffle/FairTrade/contracts/TestHash.sol",
  "compiler": {
    "name": "solc",
    "version": "0.5.16+commit.9c3226ce.Emscripten.clang"
  },
  "schemaVersion": "3.4.1",
  "updatedAt": "2022-12-20T16:13:21.917Z",
  "networkType": "ethereum",
  "devdoc": {
    "methods": {}
  },
  "userdoc": {
    "methods": {}
  }
}